:100000000C94D6010C94F3010C94F3010C94F301BD
:100010000C94F3010C94F3010C94F3010C94F30190
:100020000C94F3010C94F3010C94F3010C94F30180
:100030000C94F3010C94F3010C94F3010C94F30170
:100040000C94F3010C94F3010C94F3010C94F30160
:100050000C94F3010C94F3010C94F3010C94F30150
:100060000C94F3010C94F3010C94F3010C94F30140
:100070000C94F3010C94F3010C94F3010C94F30130
:100080000C94F3010C94F3010C94F3010C94F30120
:100090000C94F3010C94F3010C94F3010C94F30110
:1000A0000C94F3010C94F3010C94F30105A84CCDCE
:1000B000B2D44EB93836A9020C50B9918688083CA2
:1000C000A6AAAA2ABE000000803F6E616E00696E7B
:1000D0006600000000000000005F0000000700074D
:1000E00000147F147F14242A7F2A122313086462C9
:1000F00036495522500005030000001C2241000033
:1001000041221C0014083E081408083E080800504C
:10011000300000080808080800606000002010088F
:1001200004023E5149453E00427F40004261514930
:10013000462141454B311814127F1027454545395A
:100140003C4A494930017109050336494949360697
:100150004949291E003636000000563600000814B2
:1001600022410014141414140041221408020151F5
:100170000906324979413E7E1111117E7F49494974
:10018000363E414141227F4141221C7F494949413C
:100190007F090909013E4149497A7F0808087F0023
:1001A000417F41002040413F017F081422417F40B0
:1001B0004040407F020C027F7F0408107F3E414197
:1001C000413E7F090909063E4151215E7F091929F7
:1001D00046464949493101017F01013F4040403FC6
:1001E0001F2040201F3F4038403F6314081463071E
:1001F000087008076151494543007F4141000204EE
:100200000810200041417F000402010204404040E8
:100210004040000102040020545454787F48444474
:10022000383844444420384444487F38545454189F
:10023000087E0901020C5252523E7F0804047800E5
:10024000447D40002040443D007F10284400004190
:100250007F40007C041804787C0804047838444407
:1002600044387C14141408081414187C7C08040402
:10027000084854545420043F4440203C4040207CD3
:100280001C2040201C3C4030403C44281028440C9A
:100290005050503C4464544C440008364100000027
:1002A0007F00000041360800100808100878464119
:1002B000467800407A10F35A00A0724E18090010D8
:1002C000A5D4E80000E87648170000E40B540200CB
:1002D00000CA9A3B000000E1F505000080969800F6
:1002E000000040420F000000A0860100000010271F
:1002F00000000000E80300000000640000000000AF
:100300000A00000000000100000000002C76D888E0
:10031000DC674F0823DFC1DFAE59E1B1B796E5E3F3
:10032000E453C63AE651997696E8E6C28426EB890C
:100330008C9B62ED407C6FFCEFBC9C9F40F2BAA5A9
:100340006FA5F490055A2AF75C936B6CF9676DC141
:100350001BFCE0E40D47FEF520E6B500D0ED902E45
:100360000300943577050080841E080000204E0AA3
:10037000000000C80C333333330F986E12831141E1
:10038000EF8D2114893BE65516CFFEE6DB18D184AC
:100390004B381BF77C1D901DA4BBE42420328472D3
:1003A0005E228100C9F124ECA1E53D2711241FBE86
:1003B000CFEFDAE0DEBFCDBF11E0A0E0B1E0EAE6CA
:1003C000FCE102C005900D92A034B107D9F713E00B
:1003D000A0E4B1E001C01D92A833B107E1F70E948B
:1003E000F5010C94330E0C9400006F927F928F9263
:1003F0009F92AF92BF92CF92DF92EF92FF920F93B4
:100400001F93DF93CF93CDB7DEB7E5970FB6F89480
:10041000DEBF0FBECDBF80E88093610081E0809396
:1004200061008FE30E94640888249924B8EC6B2E45
:10043000712C0E94360680E060E040E051E00E94AE
:100440000B08B401882777FD8095982F0E94850AB4
:1004500020E030E040E05EE30E94C50B2BED3FE082
:1004600049E450E40E94C50B7B018C01C8010E9445
:10047000E70920E030E040E751E40E94C50B20E0AE
:1004800030E048E252E40E946C090E94280C5B01B3
:100490006C01B701C8010E94480C20E030E040E741
:1004A00051E40E94C50B20E030E040EC51E40E9492
:1004B0006C090E94280C7B018C01C601B5010E94C9
:1004C000570A5B016C01C801B7010E94570A8B01F2
:1004D0009C018AE268E14A2D202F0E9471060E9449
:1004E000300888E893E1F3013197F1F70197D9F7E4
:1004F0000894811C911C80E18816910409F099CF21
:10050000DE015696E0E2F1E080E201900D9281502A
:10051000E1F74E010894811C911CC40140E050E0B9
:1005200068E072E400E010E020E831E4A0E1EA2EA7
:10053000F0E1CF2EE6E1AE2EB12CAC0EBD1E0E9436
:10054000B2080E94360680E060E042E151E00E947D
:100550000B08C4010E94DA080E943008FFCFA1E115
:10056000B0E0E5EBF2E00C94840C3C017F876E87F1
:100570006A01FC0117821682838181FD03C06FEF3F
:100580007FEF6FC39E012F5F3F4F398B288BF301A5
:100590002381EE85FF8523FD859123FF8191FF87D0
:1005A000EE87882309F45AC3853251F4EE85FF851E
:1005B00023FD859123FF8191FF87EE87853229F402
:1005C00090E0B3010E94A90DE2CF982F10E088249B
:1005D00099241032B0F49B3269F09C3228F49032A6
:1005E00051F0933271F40BC09D3239F0903349F4DD
:1005F000116028C01260146025C0186023C010610B
:1006000021C017FD2AC0892F80538A3078F416FF45
:1006100006C0FAE09F9E902C1124980E13C03AE079
:10062000839E802C1124880E10620CC09E3221F40F
:1006300016FD14C3106406C09C3611F4106802C085
:10064000983659F4EE85FF8523FD959123FF91910E
:10065000FF87EE87992309F0BCCF892F855483301B
:1006600020F4812F8061905E07C0892F85568330EA
:1006700008F09FC1812F8F7E86FD02C076E0972E05
:100680006FE3F62EF822953619F4F0E4FF2A07C03E
:10069000963619F420E8F22A02C091109A94F7FED7
:1006A0000AC03BE3391518F45CE3B52E02C0B92C3F
:1006B000B39427E009C047E0491520F4BB2447E084
:1006C000942EF7CF292DBB24C60104969D878C87D5
:1006D000F6016081718182819381AE014F5F5F4F2E
:1006E0000B2D0E94BB0C6C010981202E332400FFCE
:1006F00004C003FD02C01DE209C0F1FE02C01BE2FE
:1007000005C0F2FC02C010E001C010E2C1018C7013
:100710009070892BB9F1112311F483E001C084E0BA
:10072000881510F088240AC0881AF3FC07C080E2FC
:1007300090E0B3010E94A90D8A94C9F7112329F012
:10074000812F90E0B3010E94A90D23FE03C00AECA3
:1007500010E00EC00EEC10E00BC0E114F10409F043
:10076000805290E0B3010E94A90D0F5F1F4F05C09A
:10077000EF2CFF24F0E1EF22FF24F801849188237D
:1007800061F714C1F7FE12C0BC0C24FE04C08A81BC
:10079000813309F4BA941B141CF0BB24B3942DC00C
:1007A000F8E0FB1550F538E0B32E27C0F6FC25C065
:1007B000892D90E08C159D054CF02CEFC2162FEF83
:1007C000D20624F030E8F32A01C09A94992049F027
:1007D000E2E0F0E0EC0FFD1FE90DF11D80818033B8
:1007E000A1F3F7FE0AC0B92CB394892D90E0C81686
:1007F000D90614F0992401C09C18F7FC03C025E029
:1008000030E009C01C141D041CF021E030E003C0DE
:1008100096012F5F3F4F112311F02F5F3F4F99201B
:1008200029F0892D90E00196280F391F882D90E03E
:100830002817390714F0882401C0821A4F2C552438
:10084000C20189709070892B39F008C080E290E075
:10085000B3010E94A90D8A948820C1F7112329F0C1
:10086000812F90E0B3010E94A90D43FE07C008C08C
:1008700080E390E0B3010E94A90D8A948820C1F71B
:10088000F7FE46C08601D7FE02C000E010E0760108
:100890000894E11CF11CE01AF10A41E050E04C0F11
:1008A0005D1FE40EF51E26014B185108892D90E0BE
:1008B000AA24BB24A81AB90A5FEF0F3F150729F431
:1008C0008EE290E0B3010E94A90DC016D10634F06B
:1008D000401651061CF4F701808101C080E30150ED
:1008E00010400894E11CF11C0A151B052CF090E047
:1008F000B3010E94A90DE0CF0C151D0539F49A81B2
:10090000963318F4953311F424FE81E390E04BC044
:100910008A81813309F00F7E90E0B3010E94A90D16
:100920009920A1F08EE290E0B3010E94A90D12E09F
:10093000E1E0F0E0EC0FFD1FE10FF11D1F5F808192
:1009400090E0B3010E94A90D9A9491F744FC03C072
:1009500085E690E002C085E490E0B3010E94A90D15
:10096000D7FC05C0C114D10441F404FF06C0D094E3
:10097000C194D108D3948DE201C08BE290E0B30121
:100980000E94A90D80E305C08F5F26EF3FEFC20EE6
:10099000D31E3AE0C316D104BCF790E0B3010E9425
:1009A000A90DC601C096B3010E94A90DCC84DD84B7
:1009B00052C1933631F0933799F0933509F059C00D
:1009C00023C0F601808189835E010894A11CB11CBB
:1009D00022E030E0C20ED31E21E0E22EF12C12C044
:1009E000F601A080B18016FD03C06FEF7FEF02C05B
:1009F000692D70E022E030E0C20ED31EC5010E94D6
:100A00009E0D7C011F7713C0F601A080B18016FDFA
:100A100003C06FEF7FEF02C0692D70E022E030E08D
:100A2000C20ED31EC5010E94930D7C01106813FFF6
:100A300007C01BC080E290E0B3010E94A90D8A9418
:100A4000882D90E0E816F906A8F30FC0F50117FD10
:100A5000859117FF81915F0190E0B3010E94A90D7C
:100A600081108A940894E108F108E114F10471F707
:100A7000F2C0943611F0993689F517FF08C0F601D7
:100A8000208131814281538184E090E00AC0F601E7
:100A9000808191819C01442737FD4095542F82E04D
:100AA00090E0C80ED91E9FE6F92EF12257FF09C02B
:100AB00050954095309521953F4F4F4F5F4F90E8AF
:100AC000F92ACA01B901AE014F5F5F4F2AE030E059
:100AD0000E94D50DE82EE889EE1A41C0953721F421
:100AE0001F7E2AE030E01CC0197F9F3661F09037EE
:100AF00020F4983509F0B2C00FC0903739F098371C
:100B000009F0ACC004C028E030E00AC0106114FD58
:100B1000146020E130E004C014FD166020E132E0F2
:100B200017FF08C0F601608171818281938144E0E2
:100B300050E008C0F60180819181BC0180E090E026
:100B400042E050E0C40ED51EAE014F5F5F4F0E94E1
:100B5000D50DE82E5889E51A8FE7F82EF122F6FE1A
:100B60000BC08EEFF822E91438F4F4FE07C0F2FC53
:100B700005C09FEEF92202C01E2D01C0192DF4FE02
:100B80000DC0FE01EE0DF11D8081803319F4E9EEF8
:100B9000FE2208C01F5FF2FE05C003C08F2D8678BD
:100BA00009F01F5F0F2DF3FC14C0F0FE0FC01815E5
:100BB00010F09E2C0BC09E2C980C911A182D06C07C
:100BC00080E290E0B3010E94A90D1F5F1815C0F3E9
:100BD00004C0181510F4811A01C0882404FF0FC046
:100BE00080E390E0B3010E94A90D02FF1DC001FD4A
:100BF00003C088E790E00EC088E590E00BC0802F2E
:100C0000867891F001FF02C08BE201C080E2F7FC20
:100C10008DE290E0B3010E94A90D06C080E390E050
:100C2000B3010E94A90D9A94E914C0F3EA94E1E09B
:100C3000F0E0EC0FFD1FEE0DF11D808190E0B3019F
:100C40000E94A90DEE2091F706C080E290E0B3016A
:100C50000E94A90D8A948820C1F799CCF30166817E
:100C60007781CB016196E2E10C94A00CE0E4F1E025
:100C7000119283E0E833F807D9F70895843580F5B9
:100C8000603370F5262F269526952695677090E09F
:100C9000442399F0E4E52E9FF0011124E80FF91F99
:100CA000E05CFE4F81E090E002C0880F991F6A95DA
:100CB000E2F72081282B20830895E4E52E9FF001A0
:100CC0001124E80FF91FE05CFE4F81E090E002C0C4
:100CD000880F991F6A95E2F7809520812823208349
:100CE00008952F923F924F925F926F927F928F92D0
:100CF0009F92AF92BF92CF92DF92EF92FF920F93AB
:100D00001F93DF93CF93CDB7DEB72D970FB6F8942F
:100D1000DEBF0FBECDBFD82EC62E142F022F8417D4
:100D2000F9F4A62EBB24E22EFF240EC08D2D6A2DD1
:100D300041E00E943E06C01620F40894A11CB11C9C
:100D400003C00894A108B108C01628F4EA14FB04F3
:100D50000CF4FEC0EBCFAE14BF040CF4F9C0E6CF28
:100D6000282F30E06017F9F4C9015C01E42EFF245C
:100D70000EC08A2D6C2D41E00E943E06D11620F453
:100D80000894A11CB11C03C00894A108B108D11695
:100D900028F4EA14FB040CF4DBC0EBCFAE14BF0460
:100DA0000CF4D6C0E6CF842F90E09A838983C901E2
:100DB0005C0169817A81681B790B882777FD8095B2
:100DC000982F0E94850A6F83788789879A87202EBB
:100DD00033244C2C5524B10164197509882777FDFB
:100DE0008095982F0E94850A3B014C012F81388500
:100DF00049855A850E94EA096B837C838D839E8393
:100E000020E030E040E050E00E94C10B87FF0DC0C1
:100E1000C401B30190582F81388549855A850E94B5
:100E2000EA096B837C838D839E830F2EF0E0CF2EA7
:100E3000F0E0DF2EF0E0EF2EF0E0FF2EF02D70C09E
:100E4000AB868A2D642D41E00E943E06C701B601A3
:100E50002B813C814D815E810E946C0931C08B8564
:100E6000642D41E00E943E061D861C86C401B3012C
:100E700020E030E040E050E00E94C10B181624F45E
:100E8000E1E0F0E0FD87EC8700E010E0C401B30191
:100E900020E030E040E050E00E94E309882314F4B1
:100EA00001E010E08C859D85801B910B480E591E3A
:100EB000C701B60120E030E040E85FE30E946B0923
:100EC0006B017C0120E030E040E05FE30E94C10B59
:100ED00088239CF0C401B30120E030E040E050E002
:100EE0000E94C10B18162CF4241435040CF0B7CF53
:100EF00004C0421453040CF0B2CF6F817885898509
:100F00009A8520E030E040E050E00E94C10B1816C6
:100F100024F40894A11CB11C03C00894A108B108D2
:100F20006F81788589859A8520E030E040E050E047
:100F30000E94C10B181634F4E981FA81EA15FB0509
:100F40003CF07ECF89819A81A816B9060CF078CF43
:100F50002D960FB6F894DEBF0FBECDBFCF91DF91B7
:100F60001F910F91FF90EF90DF90CF90BF90AF90C7
:100F70009F908F907F906F905F904F903F902F90B9
:100F800008959F92AF92BF92CF92DF92EF92FF921D
:100F90000F931F93CF93DF93982EC62E85E0489F23
:100FA000E0011124C05AD04000E081E0A82EB12C0D
:100FB00018C0612F6C0DA501012E02C0440F551FF2
:100FC0000A94E2F74E215F21012E02C05595479504
:100FD0000A94E2F78D2D0E943E061F5F183049F7F4
:100FE0000F5F053061F0FE01E00FF11DEE52FF4F83
:100FF00010E0E491D02ED90CEE2EFF24EFCFDF913C
:10100000CF911F910F91FF90EF90DF90CF90BF9005
:10101000AF909F900895EF92FF920F931F93CF93FD
:10102000DF93F82E062F142F242F352FC901EC0142
:1010300095E0E92E08C08E9DC00111248F0D602F10
:101040000E94C10721969E01211B822F48814423C3
:1010500091F7DF91CF911F910F91FF90EF9008953D
:10106000CF93DF9380E060E00E94A508C0E4D1E068
:1010700081E069910E94430883E0C833D807C1F733
:10108000DF91CF91089595B18295880F807E9F7DE5
:10109000982B95B95F9827E030E070E08F98CB01EE
:1010A000022E02C0959587950A94E2F780FF02C050
:1010B0002E9A01C02E988F9A215030408FEF2F3FEB
:1010C000380761F75F9A08951F93182F579A249A4B
:1010D000259A269A879A2C985F9A2C9A80E061E24A
:1010E0000E944308106880E0612F0E94430880E05E
:1010F00064E00E94430880E063E10E94430880E0CE
:101100006CE00E94430880E060E20E94430880E0B7
:101110006CE00E94430880E060E40E94430880E0A5
:1011200060E80E9443081F910895CF93DF93C0E0C9
:10113000D0E081E060E00E944308219681E0C83F52
:10114000D807B9F7DF91CF9108951F93182F6064E6
:1011500080E00E944308106880E0612F0E944308ED
:101160001F910895AF92BF92CF92EF920F931F936A
:10117000FC01408351836283738304831583268338
:101180003783E08AC18AB48AA38A81E0828B80E0B7
:1011900090E0A0E0B0E080879187A287B387848742
:1011A0009587A687B7871F910F91EF90CF90BF903B
:1011B000AF9008953F924F925F926F927F928F927D
:1011C0009F92AF92BF92CF92DF92EF92FF920F93D6
:1011D0001F93CF93DF93EC018A89882309F469C0B8
:1011E000688970E0882777FD8095982F0E94850A8E
:1011F00020E030E040E05EE30E94C50B0E94D00991
:101200000E94570A362E882447C0092D10E0B801E5
:10121000882777FD8095982F0E94850A20E030E08E
:1012200040E05EE30E94C50B0E94C00A6B017C0196
:10123000688179818A819B810E94570AA92CA60E18
:101240006C817D818E819F810E94570AB82CB60ED9
:10125000C301B2010E94850AA70196010E946C0990
:101260000E94520AEB89FC89E60FF71F408150E08B
:10127000009510950770107002C0559547950A9516
:10128000E2F741708A2D6B2D0E943E069394888967
:10129000981608F4BACF83948989881650F4839CF1
:1012A000C001112499242C01662457FC6094762CEB
:1012B000EECFDF91CF911F910F91FF90EF90DF90D4
:1012C000CF90BF90AF909F908F907F906F905F90E6
:1012D0004F903F9008955058BB27AA270ED0EFC1DA
:1012E000B8D130F0BDD120F031F49F3F11F41EF49D
:1012F000ADC10EF4E095E7FB7AC1E92F02D280F38D
:10130000BA17620773078407950718F071F49EF502
:1013100031C20EF4E0950B2EBA2FA02D0B01B901AE
:1013200090010C01CA01A0011124FF27591B99F05B
:10133000593F50F4503E68F11A16F040A22F232F67
:10134000342F4427585FF3CF469537952795A795B7
:10135000F0405395C9F77EF41F16BA0B620B730B5E
:10136000840BBAF09150A1F0FF0FBB1F661F771FCF
:10137000881FC2F70EC0BA0F621F731F841F48F484
:10138000879577956795B795F7959E3F08F0B3CF0A
:101390009395880F08F09927EE0F979587950895F4
:1013A000D2D180F09F3740F491110EF4E4C160E097
:1013B00070E080E89FE3089526F01B16611D711D03
:1013C000811D1BC135C1EFD008F481E0089550D1D3
:1013D000E39586C10CD073C143D140F03AD130F0CF
:1013E00021F45F3F19F003C15111C5C12FC189D14B
:1013F00098F39923C9F35523B1F3951B550BBB27DC
:10140000AA2762177307840738F09F5F5F4F220F88
:10141000331F441FAA1FA9F333D00E2E3AF0E0E881
:1014200030D091505040E695001CCAF729D0FE2FCD
:1014300027D0660F771F881FBB1F2617370748075F
:10144000AB07B0E809F0BB0B802DBF01FF27935815
:101450005F4F2AF09E3F510568F0C9C08CC15F3FC5
:10146000ECF3983EDCF3869577956795B795F795FD
:101470009F5FC9F7880F911D9695879597F90895F5
:10148000E1E0660F771F881FBB1F62177307840791
:10149000BA0720F0621B730B840BBA0BEE1F88F7A0
:1014A000E095089504D06894B11165C1089531D1D3
:1014B00088F09F5790F0B92F9927B751A0F0D1F03D
:1014C000660F771F881F991F1AF0BA95C9F712C0C7
:1014D000B13081F04FD1B1E008954CC1672F782F22
:1014E0008827B85F39F0B93FCCF386957795679533
:1014F000B395D9F73EF490958095709561957F4F9F
:101500008F4F9F4F0895E89409C097FB3EF4909544
:101510008095709561957F4F8F4F9F4F9923A9F0CC
:10152000F92F96E9BB279395F6958795779567955B
:10153000B795F111F8CFFAF4BB0F11F460FF1BC09F
:101540006F5F7F4F8F4F9F4F16C0882311F096E932
:1015500011C0772321F09EE8872F762F05C06623E0
:1015600071F096E8862F70E060E02AF09A95660F99
:10157000771F881FDAF7880F9695879597F9089552
:10158000E2D080F09F3740F491110EF0F4C060E09B
:1015900070E080E89FEB089526F41B16611D711D15
:1015A000811D2BC045C0990F0008550FAA0BE0E81C
:1015B000FEEF16161706E807F907C0F01216130615
:1015C000E407F50798F0621B730B840B950B39F455
:1015D0000A2661F0232B242B252B21F408950A26BB
:1015E00009F4A140A6958FEF811D811D089597F9FB
:1015F0009F6780E870E060E00895882371F47723A6
:1016000021F09850872B762F07C0662311F4992775
:101610000DC09051862B70E060E02AF09A95660F1D
:10162000771F881FDAF7880F9695879597F90895A1
:101630009F3F31F0915020F4879577956795B79546
:10164000880F911D9695879597F908959FEF80ECE7
:10165000089500240A941616170618060906089518
:1016600000240A9412161306140605060895EECFF8
:1016700050D0E8F3E894E0E0BB279F57F0F02AED64
:101680003FE049EC06C0EE0FBB0F661F771F881FB7
:1016900028F0B23A62077307840728F0B25A620B47
:1016A000730B840BE3959A9572F7803830F49A9512
:1016B000BB0F661F771F881FD2F79048BBCF092E3C
:1016C0000394000C11F4882352F0BB0F40F4BF2B9D
:1016D00011F460FF04C06F5F7F4F8F4F9F4F0895DD
:1016E000EF93E0FF06C0A2EA2AED3FE049EC5FEB92
:1016F00004DEE5DF0F90039401FC9058ECEAF0E083
:10170000CDC057FD9058440F551F59F05F3F71F001
:101710004795880F97FB991F61F09F3F79F0879558
:101720000895121613061406551FF2CF4695F1DFE1
:1017300008C0161617061806991FF1CF8695710571
:10174000610508940895E5DFA0F0BEE7B91788F4B5
:10175000BB279F3860F41616B11D672F782F882796
:10176000985FF7CF869577956795B11D93959639D4
:10177000C8F30895E894BB2766277727CB0197F92C
:10178000089511DF08F48FEF08950BD098CF61DF33
:1017900028F066DF18F0952309F029CF57CF1124E0
:1017A000EACFAFDFA0F3959FD1F3950F50E0551F1F
:1017B000629FF001729FBB27F00DB11D639FAA27A6
:1017C000F00DB11DAA1F649F6627B00DA11D661FF5
:1017D000829F2227B00DA11D621F739FB00DA11D16
:1017E000621F839FA00D611D221F749F3327A00DD0
:1017F000611D231F849F600D211D822F762F6A2F6C
:1018000011249F5750408AF0E1F088234AF0EE0FF0
:10181000FF1FBB1F661F771F881F91505040A9F7FD
:101820009E3F510570F0E3CEA6CF5F3FECF3983EAC
:10183000DCF3869577956795B795F795E7959F5F64
:10184000C1F7FE2B880F911D9695879597F90895FE
:1018500060DFE0F09E37D8F09639B8F49E3848F44F
:10186000672F782F8827985FF9CF869577956795AA
:1018700093959539D0F3B62FB1706B0F711D811D03
:1018800020F48795779567959395B7CED1CE73CF92
:101890009F93EEDE0F9007FCEE5F22CF9F938F9316
:1018A0007F936F93FF93EF939B01AC016EDFEF91FA
:1018B000FF9105D02F913F914F915F9166CFDF93BC
:1018C000CF931F930F93FF92EF92DF927B018C01D6
:1018D000689405C0DA2EEF0164DFFE01E894A5915B
:1018E0002591359145915591AEF3EF0106DDFE014D
:1018F0009701A801DA9479F7DF90EF90FF900F91AC
:101900001F91CF91DF9108952F923F924F925F9256
:101910006F927F928F929F92AF92BF92CF92DF92FF
:10192000EF92FF920F931F93CF93DF93CDB7DEB764
:10193000CA1BDB0B0FB6F894DEBF0FBECDBF0994F8
:101940002A88398848885F846E847D848C849B844F
:10195000AA84B984C884DF80EE80FD800C811B815D
:10196000AA81B981CE0FD11D0FB6F894DEBF0FBE8C
:10197000CDBFED010895283008F027E03327DA01C4
:10198000990F311D87FD916000966105710539F44D
:1019900032602E5F3D9330E32A95E1F708959F3F33
:1019A00030F080387105610509F03C5F3C5F3D9384
:1019B000913008F08068911DDF93CF931F930F93B0
:1019C000FF92EF92192F987F9695E92F969596950D
:1019D000E90FFF27E45FFC4F99273327EE24FF240C
:1019E000A701E70105900894079428F4360FE71E35
:1019F000F81E491F511D660F771F881F991F0694F7
:101A0000A1F70590079428F4E70EF81E491F561F0A
:101A1000C11D770F881F991F661F0694A1F70590B7
:101A2000079428F4F80E491F561FC71FD11D880FB1
:101A3000991F661F771F0694A1F70590079420F45D
:101A4000490F561FC71FD81F990F661F771F881F82
:101A50000694A9F784911095177041F0D695C79513
:101A600057954795F794E7941A95C1F7E2EBF2E0A2
:101A700068941590159135916591959105907FE247
:101A80007395E118F10A430B560BC90BD009C0F747
:101A9000E10CF11E431F561FC91FD01D7EF4703389
:101AA00011F48A95E6CFE894015030F0080F0AF45B
:101AB0000027021708F4202F2395022F7A3328F0ED
:101AC00079E37D932A95E9F710C07D932A9589F6ED
:101AD000069497956795379517951794E118F10A2D
:101AE000430B560BC90BD00998F023957E91739543
:101AF0007A3308F070E37C932013B8F77E9170611D
:101B00007D9330F0839571E37D9370E32A95E1F73F
:101B10001124EF90FF900F911F91CF91DF919927A2
:101B200087FD90950895FC0105906150704001106B
:101B3000D8F7809590958E0F9F1F0895FC016150F6
:101B4000704001900110D8F7809590958E0F9F1FDF
:101B500008950F931F93CF93DF938C01EB018B813B
:101B600081FF1BC082FF0DC02E813F818C819D8132
:101B70002817390764F4E881F9810193F983E88330
:101B800006C0E885F985802F0995892B31F48E816F
:101B90009F8101969F838E8302C00FEF1FEFC801C4
:101BA000DF91CF911F910F910895FA01AA27283054
:101BB00051F1203181F1E8946F936E7F6E5F7F4F1A
:101BC0008F4F9F4FAF4FB1E03ED0B4E03CD0670F96
:101BD000781F891F9A1FA11D680F791F8A1F911DE9
:101BE000A11D6A0F711D811D911DA11D20D009F439
:101BF00068943F912AE0269F11243019305D31937B
:101C0000DEF6CF010895462F4770405D4193B3E063
:101C10000FD0C9F7F6CF462F4F70405D4A3318F00A
:101C2000495D31FD4052419302D0A9F7EACFB4E0BB
:101C3000A6959795879577956795BA95C9F7009773
:101C40006105710508959B01AC010A2E0694579514
:101C5000479537952795BA95C9F7620F731F841F6B
:0A1C6000951FA01D0895F894FFCF12
:101C6A00436C6F636B206973207469636B696E6779
:101C7A002100476F6F64204D6F726E696E67210095
:101C8A0007E0181820044002581A981980018001A8
:101C9A0090099009881147E240022004181807E0C9
:00000001FF
