:100000000C94B7020C94D4020C94D4020C94D40235
:100010000C94D4020C94D4020C94D4020C94D40208
:100020000C94D4020C94D4020C94D4020C94D402F8
:100030000C94D4020C94D4020C94D4020C94D402E8
:100040000C94D4020C94D4020C94D4020C94D402D8
:100050000C94000F0C94D4020C94D4020C94D4028F
:100060000C94D4020C94D4020C94D4020C94D402B8
:100070000C94D4020C94D4020C94D4020C94D402A8
:100080000C94D4020C94D4020C94D4020C94DA2272
:100090000C94D4020C94D4020C94D4020C94D40288
:1000A0000C94D4020C94D4020C94D40200000000EE
:1000B0000004040400040A0A000000050F050F05EF
:1000C000070C06050E000902040906080D0A0504BE
:1000D0000400000002040804020402010204000AF1
:1000E000040A0000040E0400000000040800000ED2
:1000F00000000000000004000102040806090B0DC6
:1001000006060A02020F060902040F0E0106010E7E
:1001100009090F01010E080E010E06080E09060F4F
:10012000010204080609060906060907010600047B
:1001300000040000040004080204080402000F0088
:100140000F0004020102040609020002040A0A0860
:100150000606090F09090C0A0E090E070808080708
:100160000E0909090E0F080E080F0F080F08080FD7
:10017000080B090F09090F09090E0404040E0702F0
:10018000020A04090A0C0A09080808080F090F09DD
:100190000909090D0B090906090909060E090E08C6
:1001A0000806090D0A050E090E0A09070806010EC0
:1001B0000E0404040409090909060909090A0C09BD
:1001C00009090F09090906090909090701060F02AA
:1001D00004080F0C0808080C0008040201030101C0
:1001E00001030205000000000000000F08040000E9
:1001F0000006090F09090C0A0E090E07080808076E
:100200000E0909090E0F080E080F0F080F08080F36
:10021000080B090F09090F09090F0606060F070247
:10022000020A04090A0C0A09080808080F090F093C
:100230000909090D0B090906090909060E090E0825
:100240000806090D0A050E090E0A09070806010E1F
:100250000E0404040409090909060909090A0C091C
:1002600009090F09090906090909090701060F0209
:1002700004080F060408040604040404040602012A
:10028000020600050A0000060609090F6E616E00ED
:10029000696E6600000000000000005F00000007BB
:1002A000000700147F147F14242A7F2A12231308C6
:1002B000646236495522500005030000001C2241AB
:1002C000000041221C0014083E081408083E0808DB
:1002D0000050300000080808080800606000002096
:1002E000100804023E5149453E00427F40004261F1
:1002F0005149462141454B311814127F102745457D
:1003000045393C4A49493001710905033649494993
:1003100036064949291E00363600000056360000D0
:100320000814224100141414141400412214080269
:1003300001510906324979413E7E1111117E7F49F2
:100340004949363E414141227F4141221C7F494972
:1003500049417F090909013E4149497A7F08080856
:100360007F00417F41002040413F017F081422412E
:100370007F404040407F020C027F7F0408107F3E98
:100380004141413E7F090909063E4151215E7F09F5
:10039000192946464949493101017F01013F404041
:1003A000403F1F2040201F3F4038403F6314081447
:1003B0006307087008076151494543007F414100C8
:1003C00002040810200041417F00040201020440A1
:1003D00040404040000102040020545454787F48BB
:1003E0004444383844444420384444487F385454C2
:1003F0005418087E0901020C5252523E7F08040430
:100400007800447D40002040443D007F1028440097
:1004100000417F40007C041804787C08040478388C
:10042000444444387C14141408081414187C7C08C0
:100430000404084854545420043F4440203C4040A5
:10044000207C1C2040201C3C4030403C442810288C
:10045000440C5050503C4464544C44000836410015
:1004600000007F00000041360800100808100878DE
:100470004641467800407A10F35A00A0724E18099F
:100480000010A5D4E80000E87648170000E40B54FB
:10049000020000CA9A3B000000E1F50500008096CA
:1004A0009800000040420F000000A08601000000FC
:1004B000102700000000E8030000000064000000B6
:1004C00000000A00000000000100000000002C767F
:1004D000D888DC674F0823DFC1DFAE59E1B1B7969A
:1004E000E5E3E453C63AE651997696E8E6C28426F7
:1004F000EB898C9B62ED407C6FFCEFBC9C9F40F2D3
:10050000BAA56FA5F490055A2AF75C936B6CF9674E
:100510006DC11BFCE0E40D47FEF520E6B500D0ED13
:10052000902E0300943577050080841E080000207B
:100530004E0A000000C80C333333330F986E128319
:100540001141EF8D2114893BE65516CFFEE6DB18ED
:10055000D1844B381BF77C1D901DA4BBE4242032B2
:1005600084725E228100C9F124ECA1E53D271124AB
:100570001FBECFEFDAE0DEBFCDBF11E0A0E0B1E0FB
:10058000E2E6F2E602C005900D92A836B107D9F76F
:100590001AE0A8E6B1E001C01D92A832B107E1F768
:1005A0000E9451240C942F310C94000010924603A9
:1005B0001092450383E090E09093A00480939F0401
:1005C0001092490381E08093690180939E04809397
:1005D000A80410928501809368018AE290E09093CC
:1005E000A3048093A20486E290E09093A7048093F2
:1005F000A60424E130E03093A5042093A40486E00F
:1006000090E090939D0480939C0430934B0320933F
:100610004A038BE090E090935B0280935A02309300
:100620005D0220935C0280E190E090936B018093E7
:100630006A01089590917C008770987F892B809340
:100640007C0080917A00806480937A0080917A00A7
:1006500086FDFCCF2091780030917900C901089582
:10066000EF92FF920F931F937D9B61C088EE93E002
:1006700028EC30E0F9013197F1F70197D9F77D992E
:10068000FECFE0904902F0904A0200914B02109197
:100690004C02C801B70120E030E040E051E40E9484
:1006A0003E2C882379F480E090E0A0E9B1E48093C7
:1006B000490290934A02A0934B02B0934C0282E00D
:1006C00090E031C0C801B70120E030E040E951E4DA
:1006D0000E943E2C882379F480E090E0A0EEB1E403
:1006E0008093490290934A02A0934B02B0934C022C
:1006F00083E090E018C0C801B70120E030E040EE90
:1007000051E40E943E2C882391F480E090E0A0E028
:10071000B1E48093490290934A02A0934B02B093B4
:100720004C0281E090E090934803809347037E9BC6
:100730000EC088EE93E028EC30E0F9013197F1F734
:100740000197D9F77E99FECF81E08093A1041F9194
:100750000F91FF90EF900895CF92DF92EF92FF926A
:100760001F93CF93DF93E0904703F0904803670116
:100770000894C108D10882E0C816D10478F58091A8
:100780006901882311F40C94AB0EC1E6D3E06881B3
:1007900079818A819B8120E030E040E85FE30E941C
:1007A000C62B688379838A839B83659694E0CC39D2
:1007B000D90769F713C0688179818A819B8120E01C
:1007C00030E040E85FE30E94C72B688379838A8327
:1007D0009B83659684E0CC39D80769F793E0E916E6
:1007E000F10409F0F3C28091A8048823B1F0C1E6B6
:1007F000D3E0688179818A819B8120E030E040E804
:100800005FE30E94C62B688379838A839B83659606
:1008100083E0CA3CD80769F715C0C1E6D3E0688118
:1008200079818A819B8120E030E040E85FE30E948B
:10083000C72B688379838A839B83659693E0CA3C40
:10084000D90769F7809185018823B1F0CAECD3E01C
:10085000688179818A819B8120E030E040E85FE314
:100860000E94C62B688379838A839B83659684E084
:10087000C333D80769F715C0CAECD3E06881798122
:100880008A819B8120E030E040E85FE30E94C72B33
:10089000688379838A839B83659694E0C333D90701
:1008A00069F7809168018823B9F0C3E3D4E06881D7
:1008B00079818A819B8120E030E040E85FE30E94FB
:1008C000C62B688379838A839B83659684E0CC39C1
:1008D000D80769F70C94AF0EC3E3D4E0688179813F
:1008E0008A819B8120E030E040E85FE30E94C72BD3
:1008F000688379838A839B83659694E0CC39D90792
:1009000069F70C94AF0E609161037091620380915E
:1009100063039091640320E030E040E050E00E94E7
:100920003E2C882309F450C080918803813081F4E3
:1009300060917603709177038091780390917903A9
:1009400020E030E040E050E00E943E2C8823E1F1BE
:1009500080919D03813081F460918B0370918C03B1
:1009600080918D0390918E0320E030E040E050E0D4
:100970000E943E2C882341F18091B203813081F4A2
:100980006091A0037091A1038091A2039091A303B1
:1009900020E030E040E050E00E943E2C8823A1F0AF
:1009A0008091C703813091F46091B5037091B603D3
:1009B0008091B7039091B80320E030E040E050E030
:1009C0000E943E2C882311F41092A804113089F45F
:1009D000609161037091620380916303909164035D
:1009E00020E030E040EA52E40E943E2C882309F4E3
:1009F00050C080918803813081F4609176037091BA
:100A00007703809178039091790320E030E040EA09
:100A100052E40E943E2C8823E1F180919D038130B5
:100A200081F460918B0370918C0380918D03909180
:100A30008E0320E030E040EA52E40E943E2C8823FE
:100A400041F18091B203813081F46091A0037091F3
:100A5000A1038091A2039091A30320E030E040EA3B
:100A600052E40E943E2C8823A1F08091C70381307C
:100A700099F46091B5037091B6038091B70390919A
:100A8000B80320E030E040EA52E40E943E2C882384
:100A900019F481E08093A8041091DC03113089F4EB
:100AA0006091CA037091CB038091CC039091CD03E8
:100AB00020E030E040E050E00E943E2C882309F422
:100AC00050C08091F103813081F46091DF03709117
:100AD000E0038091E1039091E20320E030E040E008
:100AE00050E00E943E2C8823E1F180910604813081
:100AF00081F46091F4037091F5038091F603909175
:100B0000F70320E030E040E050E00E943E2C8823D4
:100B100041F180911B04813081F46091090470914E
:100B20000A0480910B0490910C0420E030E040E036
:100B300050E00E943E2C8823A1F080913004813047
:100B400091F460911E0470911F0480912004909193
:100B5000210420E030E040E050E00E943E2C882359
:100B600011F410928501113089F46091CA037091DB
:100B7000CB038091CC039091CD0320E030E040EA9C
:100B800052E40E943E2C882309F450C08091F10366
:100B9000813081F46091DF037091E0038091E10383
:100BA0009091E20320E030E040EA52E40E943E2CC3
:100BB0008823E1F180910604813081F46091F4038F
:100BC0007091F5038091F6039091F70320E030E0F7
:100BD00040EA52E40E943E2C882341F180911B049C
:100BE000813081F46091090470910A0480910B04B2
:100BF00090910C0420E030E040EA52E40E943E2C48
:100C00008823A1F080913004813099F460911E0412
:100C100070911F04809120049091210420E030E025
:100C200040EA52E40E943E2C882319F481E080932C
:100C3000850110914504113089F46091330470915D
:100C40003404809135049091360420E030E040E097
:100C500050E00E943E2C882309F450C080915A0431
:100C6000813081F4609148047091490480914A0474
:100C700090914B0420E030E040E050E00E943E2C98
:100C80008823E1F180916F04813081F460915D04EB
:100C900070915E0480915F049091600420E030E0E8
:100CA00040E050E00E943E2C882341F18091840472
:100CB000813081F4609172047091730480917404A6
:100CC0009091750420E030E040E050E00E943E2C1E
:100CD0008823A1F080919904813091F46091870478
:100CE000709188048091890490918A0420E030E01A
:100CF00040E050E00E943E2C882311F410926801DD
:100D0000113089F46091330470913404809135047A
:100D10009091360420E030E040EA52E40E943E2CFC
:100D2000882309F450C080915A04813081F4609185
:100D300048047091490480914A0490914B0420E04A
:100D400030E040EA52E40E943E2C8823E1F1809199
:100D50006F04813081F460915D0470915E04809134
:100D60005F049091600420E030E040EA52E40E9489
:100D70003E2C882341F180918404813081F460917C
:100D8000720470917304809174049091750420E052
:100D900030E040EA52E40E943E2C8823A1F080918A
:100DA0009904813099F4609187047091880480914E
:100DB000890490918A0420E030E040EA52E40E94E5
:100DC0003E2C882319F481E08093680183E0C816E3
:100DD000D10408F0D8C760916103709162038091DB
:100DE00063039091640320E030E040E050E00E9413
:100DF0003E2C882329F480917303813009F424C1A7
:100E000060917603709177038091780390917903D4
:100E100020E030E040E050E00E943E2C882329F49E
:100E200080918803813009F40FC160918B03709128
:100E30008C0380918D0390918E0320E030E040E0A0
:100E400050E00E943E2C882329F480919D0381303C
:100E500009F4FAC06091A0037091A1038091A203EC
:100E60009091A30320E030E040E050E00E943E2C4F
:100E7000882329F48091B203813009F4E5C06091A0
:100E8000B5037091B6038091B7039091B80320E049
:100E900030E040E050E00E943E2C882329F480910D
:100EA000C703813009F4D0C06091CA037091CB03AD
:100EB0008091CC039091CD0320E030E040E050E001
:100EC0000E943E2C882329F48091DC03813009F4B0
:100ED000BBC06091DF037091E0038091E1039091CA
:100EE000E20320E030E040E050E00E943E2C882306
:100EF00029F48091F103813009F4A6C06091F403D4
:100F00007091F5038091F6039091F70320E030E0B3
:100F100040E050E00E943E2C882329F48091060492
:100F2000813009F491C06091090470910A048091A4
:100F30000B0490910C0420E030E040E050E00E946F
:100F40003E2C882329F480911B04813009F47CC055
:100F500060911E0470911F048091200490912104DF
:100F600020E030E040E050E00E943E2C882329F44D
:100F700080913004813009F467C06091330470912E
:100F80003404809135049091360420E030E040E054
:100F900050E00E943E2C882329F480914504813042
:100FA00009F452C0609148047091490480914A0448
:100FB00090914B0420E030E040E050E00E943E2C55
:100FC000882321F480915A048130F1F160915D040D
:100FD00070915E0480915F049091600420E030E0A5
:100FE00040E050E00E943E2C882321F480916F0461
:100FF000813051F160917204709173048091740496
:101000009091750420E030E040E050E00E943E2CDA
:10101000882321F4809184048130B1F060918704A9
:10102000709188048091890490918A0420E030E0D6
:1010300040E050E00E943E2C882309F0A9C2809134
:101040009904813009F0A4C210926901C701029786
:10105000029708F09DC280919E048823B1F0C5E6F6
:10106000D3E0688179818A819B8120E030E040E88B
:101070005FE30E94C72B688379838A839B8365968D
:1010800094E0C03AD90769F772C6C5E6D3E0688133
:1010900079818A819B8120E030E040E85FE30E9413
:1010A000C62B688379838A839B83659684E0C03AE4
:1010B000D80769F75CC660916503709166038091FB
:1010C00067039091680320E030E040EC51E40E9417
:1010D0003E2C882309F422C180918803813089F451
:1010E00060917A0370917B0380917C0390917D03E2
:1010F00020E030E040EC51E40E943E2C882309F4CB
:101100000DC180919D03813089F460918F037091AE
:101110009003809191039091920320E030E040ECA5
:1011200051E40E943E2C882309F4F8C08091B20358
:10113000813089F46091A4037091A5038091A60386
:101140009091A70320E030E040EC51E40E943E2C57
:10115000882309F4E3C08091C703813089F460914A
:10116000B9037091BA038091BB039091BC0320E056
:1011700030E040EC51E40E943E2C882309F4CEC0BC
:101180008091DC03813089F46091CE037091CF03AC
:101190008091D0039091D10320E030E040EC51E405
:1011A0000E943E2C882309F4B9C08091F10381305C
:1011B00089F46091E3037091E4038091E5039091D9
:1011C000E60320E030E040EC51E40E943E2C88230E
:1011D00009F4A4C080910604813089F46091F80379
:1011E0007091F9038091FA039091FB0320E030E0C5
:1011F00040EC51E40E943E2C882309F48FC080917A
:101200001B04813089F460910D0470910E0480916B
:101210000F049091100420E030E040EC51E40E9473
:101220003E2C882309F47AC080913004813089F4FF
:1012300060912204709123048091240490912504EC
:1012400020E030E040EC51E40E943E2C882309F479
:1012500065C080914504813089F4609137047091B4
:1012600038048091390490913A0420E030E040EC59
:1012700051E40E943E2C882309F450C080915A0406
:10128000813081F460914C0470914D0480914E0442
:1012900090914F0420E030E040EC51E40E943E2C5D
:1012A0008823E1F180916F04813081F460916104C1
:1012B00070916204809163049091640420E030E0B6
:1012C00040EC51E40E943E2C882341F1809184043B
:1012D000813081F460917604709177048091780474
:1012E0009091790420E030E040EC51E40E943E2CE3
:1012F0008823A1F080919904813091F460918B044E
:1013000070918C0480918D0490918E0420E030E0E7
:1013100040EC51E40E943E2C882311F410929E046C
:10132000113089F4609165037091660380916703C1
:101330009091680320E030E040EE50E40E943E2CA3
:10134000882309F422C180918803813089F4609157
:101350007A0370917B0380917C0390917D0320E060
:1013600030E040EE50E40E943E2C882309F40DC189
:1013700080919D03813089F460918F037091900377
:10138000809191039091920320E030E040EE50E490
:101390000E943E2C882309F4F8C08091B20381306A
:1013A00089F46091A4037091A5038091A6039091A4
:1013B000A70320E030E040EE50E40E943E2C88235A
:1013C00009F4E3C08091C703813089F46091B903C7
:1013D0007091BA038091BB039091BC0320E030E090
:1013E00040EE50E40E943E2C882309F4CEC0809148
:1013F000DC03813089F46091CE037091CF0380913A
:10140000D0039091D10320E030E040EE50E40E9400
:101410003E2C882309F4B9C08091F103813089F40E
:101420006091E3037091E4038091E5039091E603FA
:1014300020E030E040EE50E40E943E2C882309F486
:10144000A4C080910604813089F46091F803709102
:10145000F9038091FA039091FB0320E030E040EE25
:1014600050E40E943E2C882309F48FC080911B0415
:10147000813089F460910D0470910E0480910F0405
:101480009091100420E030E040EE50E40E943E2CA9
:10149000882309F47AC080913004813089F4609106
:1014A000220470912304809124049091250420E06B
:1014B00030E040EE50E40E943E2C882309F465C0E1
:1014C00080914504813089F460913704709138042B
:1014D0008091390490913A0420E030E040EE50E4ED
:1014E0000E943E2C882309F450C080915A04813018
:1014F00081F460914C0470914D0480914E04909160
:101500004F0420E030E040EE50E40E943E2C88235F
:10151000E1F180916F04813081F4609161047091F8
:101520006204809163049091640420E030E040EE16
:1015300050E40E943E2C882341F180918404813044
:1015400081F4609176047091770480917804909191
:10155000790420E030E040EE50E40E943E2C8823E5
:10156000A1F080919904813099F460918B0470917D
:101570008C0480918D0490918E0420E030E040EE48
:1015800050E40E943E2C882319F481E080939E044D
:101590006091610370916203809163039091640391
:1015A00020E030E040EA52E40E943E2C882329F4F7
:1015B00080917303813009F424C1609176037091A6
:1015C0007703809178039091790320E030E040EA3E
:1015D00052E40E943E2C882329F4809188038130B4
:1015E00009F40FC160918B0370918C0380918D037E
:1015F00090918E0320E030E040EA52E40E943E2CBD
:10160000882329F480919D03813009F4FAC0609108
:10161000A0037091A1038091A2039091A30320E005
:1016200030E040EA52E40E943E2C882329F4809165
:10163000B203813009F4E5C06091B5037091B6033F
:101640008091B7039091B80320E030E040EA52E483
:101650000E943E2C882329F48091C703813009F42D
:10166000D0C06091CA037091CB038091CC0390915C
:10167000CD0320E030E040EA52E40E943E2C882373
:1016800029F48091DC03813009F4BBC06091DF0351
:101690007091E0038091E1039091E20320E030E05B
:1016A00040EA52E40E943E2C882329F48091F10301
:1016B000813009F4A6C06091F4037091F503809124
:1016C000F6039091F70320E030E040EA52E40E94F4
:1016D0003E2C882329F480910604813009F491C0BE
:1016E0006091090470910A0480910B0490910C049C
:1016F00020E030E040EA52E40E943E2C882329F4A6
:1017000080911B04813009F47CC060911E047091AB
:101710001F04809120049091210420E030E040EAF1
:1017200052E40E943E2C882329F4809130048130B9
:1017300009F467C0609133047091340480913504DA
:101740009091360420E030E040EA52E40E943E2CC2
:10175000882329F480914504813009F452C06091B6
:1017600048047091490480914A0490914B0420E010
:1017700030E040EA52E40E943E2C882321F480911C
:101780005A048130F1F160915D0470915E048091A2
:101790005F049091600420E030E040EA52E40E944F
:1017A0003E2C882321F480916F04813051F16091A7
:1017B000720470917304809174049091750420E018
:1017C00030E040EA52E40E943E2C882321F48091CC
:1017D00084048130B1F06091870470918804809115
:1017E000890490918A0420E030E040EA52E40E94AB
:1017F0003E2C882309F0C7C280919904813009F0FA
:10180000C2C281E0809369018EEF9FEFE80EF91E5E
:1018100092E0E916F10408F0B6C280919E04882394
:10182000B1F0C5E6D3E0688179818A819B8120E0AF
:1018300030E040E85FE30E94C72B688379838A83A6
:101840009B83659684E0C03AD80769F796C2C5E6DF
:10185000D3E0688179818A819B8120E030E040E893
:101860005FE30E94C62B688379838A839B83659696
:1018700094E0C03AD90769F780C26091650370911E
:101880006603809167039091680320E030E040ECAC
:1018900051E40E943E2C882309F422C180918803E0
:1018A000813089F460917A0370917B0380917C038D
:1018B00090917D0320E030E040EC51E40E943E2C0A
:1018C000882309F40DC180919D03813089F46091D2
:1018D0008F0370919003809191039091920320E087
:1018E00030E040EC51E40E943E2C882309F4F8C01B
:1018F0008091B203813089F46091A4037091A503B3
:101900008091A6039091A70320E030E040EC51E4E1
:101910000E943E2C882309F4E3C08091C7038130E4
:1019200089F46091B9037091BA038091BB039091DF
:10193000BC0320E030E040EC51E40E943E2C8823C0
:1019400009F4CEC08091DC03813089F46091CE032C
:101950007091CF038091D0039091D10320E030E0CB
:1019600040EC51E40E943E2C882309F4B9C08091D8
:10197000F103813089F46091E3037091E403809175
:10198000E5039091E60320E030E040EC51E40E9452
:101990003E2C882309F4A4C080910604813089F488
:1019A0006091F8037091F9038091FA039091FB0321
:1019B00020E030E040EC51E40E943E2C882309F402
:1019C0008FC080911B04813089F460910D04709167
:1019D0000E0480910F049091100420E030E040EC60
:1019E00051E40E943E2C882309F47AC0809130048F
:1019F000813089F460912204709123048091240441
:101A00009091250420E030E040EC51E40E943E2C0F
:101A1000882309F465C080914504813089F4609180
:101A20003704709138048091390490913A0420E091
:101A300030E040EC51E40E943E2C882309F450C071
:101A400080915A04813081F460914C0470914D046E
:101A500080914E0490914F0420E030E040EC51E43E
:101A60000E943E2C8823E1F180916F04813081F443
:101A700060916104709162048091630490916404A8
:101A800020E030E040EC51E40E943E2C882341F1FC
:101A900080918404813081F46091760470917704A0
:101AA000809178049091790420E030E040EC51E49A
:101AB0000E943E2C8823A1F080919904813091F4FA
:101AC00060918B0470918C0480918D0490918E04B0
:101AD00020E030E040EC51E40E943E2C882311F4D9
:101AE00010929E04113089F4609165037091660331
:101AF000809167039091680320E030E040EE50E46D
:101B00000E943E2C882309F422C1809188038130F1
:101B100089F460917A0370917B0380917C039091AA
:101B20007D0320E030E040EE50E40E943E2C88230C
:101B300009F40DC180919D03813089F460918F0378
:101B400070919003809191039091920320E030E096
:101B500040EE50E40E943E2C882309F4F8C08091A6
:101B6000B203813089F46091A4037091A503809140
:101B7000A6039091A70320E030E040EE50E40E94DD
:101B80003E2C882309F4E3C08091C703813089F497
:101B90006091B9037091BA038091BB039091BC032B
:101BA00020E030E040EE50E40E943E2C882309F40F
:101BB000CEC08091DC03813089F46091CE037091B6
:101BC000CF038091D0039091D10320E030E040EE2C
:101BD00050E40E943E2C882309F4B9C08091F1039F
:101BE000813089F46091E3037091E4038091E5030F
:101BF0009091E60320E030E040EE50E40E943E2C5D
:101C0000882309F4A4C080910604813089F460918E
:101C1000F8037091F9038091FA039091FB0320E09F
:101C200030E040EE50E40E943E2C882309F48FC03F
:101C300080911B04813089F460910D0470910E0431
:101C400080910F049091100420E030E040EE50E4C9
:101C50000E943E2C882309F47AC0809130048130A0
:101C600089F460912204709123048091240490915E
:101C7000250420E030E040EE50E40E943E2C882312
:101C800009F465C080914504813089F4609137047E
:101C9000709138048091390490913A0420E030E04A
:101CA00040EE50E40E943E2C882309F450C08091FD
:101CB0005A04813081F460914C0470914D048091FC
:101CC0004E0490914F0420E030E040EE50E40E943A
:101CD0003E2C8823E1F180916F04813081F4609182
:101CE000610470916204809163049091640420E027
:101CF00030E040EE50E40E943E2C882341F1809178
:101D00008404813081F4609176047091770480912D
:101D100078049091790420E030E040EE50E40E9495
:101D20003E2C8823A1F080919904813061F5609167
:101D30008B0470918C0480918D0490918E0420E02E
:101D400030E040EE50E40E943E2C8823E1F481E034
:101D500080939E0418C0C1E6D3E00C94DB0310917D
:101D60007303113011F00C9494040C9483041091BB
:101D70007303113009F0B0C99EC91091730311307B
:101D800009F08CCD7ACDDF91CF911F91FF90EF902C
:101D9000DF90CF900895CF93DF93CFE9D1E08E8588
:101DA000813071F4688179818A819B8120E030E003
:101DB00040E85FE30E94C72B688379838A839B8313
:101DC000659682E0C734D80751F7C7E7D2E08E8521
:101DD000813071F4688179818A819B8120E030E0D3
:101DE00040E85FE30E94C62B688379838A839B83E4
:101DF000659683E0C934D80751F7DF91CF910895F4
:101E00001F920F920FB60F9211242F933F934F936F
:101E10005F936F937F938F939F93AF93BF93EF9352
:101E2000FF930E94AC030E94CB0EFF91EF91BF91F4
:101E3000AF919F918F917F916F915F914F913F9162
:101E40002F910F900FBE0F901F90189580918502D3
:101E5000882381F560916C0170916D0180916E0114
:101E600090916F0120E030E040E850E40E94C72BE1
:101E7000609373027093740280937502909376025C
:101E80006091700170917101809172019091730164
:101E900020E030E040E85FE30E94C62B60937702C9
:101EA000709378028093790290937A0281E0809314
:101EB0008502089580919A02882381F560916C01D2
:101EC00070916D0180916E0190916F0120E030E082
:101ED00040E850E40E94C72B609388027093890207
:101EE00080938A0290938B026091700170917101CE
:101EF000809172019091730120E030E040E85FE34F
:101F00000E94C62B60938C0270938D0280938E0288
:101F100090938F0281E080939A0208958091AF029E
:101F2000882381F560916C0170916D0180916E0143
:101F300090916F0120E030E040E850E40E94C72B10
:101F400060939D0270939E0280939F029093A002E3
:101F50006091700170917101809172019091730193
:101F600020E030E040E85FE30E94C62B6093A102CE
:101F70007093A2028093A3029093A40281E08093C5
:101F8000AF0208958091C402882381F560916C01AD
:101F900070916D0180916E0190916F0120E030E0B1
:101FA00040E850E40E94C72B6093B2027093B302E2
:101FB0008093B4029093B5026091700170917101A9
:101FC000809172019091730120E030E040E85FE37E
:101FD0000E94C62B6093B6027093B7028093B8023A
:101FE0009093B90281E08093C40208958091D90250
:101FF000882381F560916C0170916D0180916E0173
:1020000090916F0120E030E040E850E40E94C72B3F
:102010006093C7027093C8028093C9029093CA026A
:1020200060917001709171018091720190917301C2
:1020300020E030E040E85FE30E94C62B6093CB02D3
:102040007093CC028093CD029093CE0281E0809376
:10205000D90208958091EE02882381F560916C0188
:1020600070916D0180916E0190916F0120E030E0E0
:1020700040E850E40E94C72B6093DC027093DD02BD
:102080008093DE029093DF02609170017091710184
:10209000809172019091730120E030E040E85FE3AD
:1020A0000E94C62B6093E0027093E1028093E202EB
:1020B0009093E30281E08093EE0208958091030300
:1020C000882381F560916C0170916D0180916E01A2
:1020D00090916F0120E030E040E850E40E94C72B6F
:1020E0006093F1027093F2028093F3029093F402F2
:1020F00060917001709171018091720190917301F2
:1021000020E030E040E85FE30E94C62B6093F502D8
:102110007093F6028093F7029093F80281E0809327
:102120000303089580911803882381F560916C0161
:1021300070916D0180916E0190916F0120E030E00F
:1021400040E850E40E94C72B609306037093070396
:10215000809308039093090360917001709171015D
:10216000809172019091730120E030E040E85FE3DC
:102170000E94C62B60930A0370930B0380930C0399
:1021800090930D0381E080931803089580912D03AF
:10219000882381F560916C0170916D0180916E01D1
:1021A00090916F0120E030E040E850E40E94C72B9E
:1021B00060931B0370931C0380931D0390931E0375
:1021C0006091700170917101809172019091730121
:1021D00020E030E040E85FE30E94C62B60931F03DD
:1021E00070932003809321039093220381E08093D6
:1021F0002D03089580914203882379F560916C0145
:1022000070916D0180916E0190916F0120E030E03E
:1022100040E850E40E94C72B609330037093310371
:102220008093320390933303609170017091710138
:10223000809172019091730120E030E040E85FE30B
:102240000E94C62B6093340370933503809336034A
:102250009093370381E0809342030895EF92FF92B9
:102260000F931F93CF93DF93E0908101F090820151
:1022700001E613E0C1E0D0E0EC16FD0631F5F8010F
:10228000608171818281938120E030E040E050E400
:102290000E94C72B60939B0170939C0180939D01CA
:1022A00090939E01F801648175818681978120E079
:1022B00030E040E850E40E94C72B60939F01709388
:1022C000A0018093A1019093A2010B5E1F4FCF301C
:1022D000D10511F02196D0CFDF91CF911F910F91B1
:1022E000FF90EF900895EF92FF920F931F93CF937B
:1022F000DF93E0908101F090820101E613E0C1E0FC
:10230000D0E0EC16FD0631F5F80160817181828123
:10231000938120E030E040E050E40E94C72B6093BE
:10232000B0017093B1018093B2019093B301F801B1
:10233000648175818681978120E030E040E850E437
:102340000E94C72B6093B4017093B5018093B601CE
:102350009093B7010B5E1F4FCF30D10511F021963E
:10236000D0CFDF91CF911F910F91FF90EF90089503
:10237000EF92FF920F931F93CF93DF93E090810131
:10238000F090820101E613E0C1E0D0E0EC16FD061A
:1023900031F5F801608171818281938120E030E024
:1023A00040E050E40E94C72B6093C5017093C601C2
:1023B0008093C7019093C801F8016481758186817B
:1023C000978120E030E040E850E40E94C72B609302
:1023D000C9017093CA018093CB019093CC010B5E2D
:1023E0001F4FCF30D10511F02196D0CFDF91CF9183
:1023F0001F910F91FF90EF900895EF92FF920F932E
:102400001F93CF93DF93E0908101F090820101E66A
:1024100013E0C1E0D0E0EC16FD0631F5F801608173
:1024200071818281938120E030E040E050E40E949D
:10243000C72B6093DA017093DB018093DC019093EA
:10244000DD01F801648175818681978120E030E0AB
:1024500040E850E40E94C72B6093DE017093DF01D7
:102460008093E0019093E1010B5E1F4FCF30D105C7
:1024700011F02196D0CFDF91CF911F910F91FF9056
:10248000EF900895EF92FF920F931F93CF93DF93F6
:10249000E0908101F090820101E613E0C1E0D0E01C
:1024A000EC16FD0631F5F80160817181828193811E
:1024B00020E030E040E050E40E94C72B6093EF0141
:1024C0007093F0018093F1019093F201F80164811F
:1024D00075818681978120E030E040E850E40E94D9
:1024E000C72B6093F3017093F4018093F5019093EF
:1024F000F6010B5E1F4FCF30D10511F02196D0CFE2
:10250000DF91CF911F910F91FF90EF900895EF927F
:10251000FF920F931F93CF93DF93E0908101F09090
:10252000820101E613E0C1E0D0E0EC16FD0631F5D2
:10253000F801608171818281938120E030E040E088
:1025400050E40E94C72B60930402709305028093AD
:10255000060290930702F801648175818681978154
:1025600020E030E040E850E40E94C72B609308026E
:102570007093090280930A0290930B020B5E1F4F27
:10258000CF30D10511F02196D0CFDF91CF911F919F
:102590000F91FF90EF900895EF92FF920F931F938A
:1025A000CF93DF93E0908101F090820101E613E088
:1025B000C1E0D0E0EC16FD0631F5F80160817181D3
:1025C0008281938120E030E040E050E40E94C72BFC
:1025D0006093190270931A0280931B0290931C025D
:1025E000F801648175818681978120E030E040E8C0
:1025F00050E40E94C72B60931D0270931E028093CB
:102600001F02909320020B5E1F4FCF30D10511F0B7
:102610002196D0CFDF91CF911F910F91FF90EF9036
:102620000895EF92FF920F931F93CF93DF93E09063
:102630008101F090820101E613E0C1E0D0E0EC16E8
:10264000FD0631F5F801608171818281938120E07E
:1026500030E040E050E40E94C72B60932E0270935C
:102660002F028093300290933102F80164817581CA
:102670008681978120E030E040E850E40E94C72B3B
:102680006093320270933302809334029093350248
:102690000B5E1F4FCF30D10511F02196D0CFDF91C7
:1026A000CF911F910F91FF90EF9008958091AD0110
:1026B000882331F40E942E1181E08093AD010895AA
:1026C0008091C201882331F40E94731181E08093CC
:1026D000C20108958091D701882331F40E94B81176
:1026E00081E08093D70108958091EC01882331F433
:1026F0000E94FD1181E08093EC0108958091010218
:10270000882331F40E94421281E0809301020895EF
:1027100080911602882331F40E94871281E0809311
:102720001602089580912B02882331F40E94CC1266
:1027300081E080932B02089580914002882329F440
:102740000E94111381E080934002089560916C0112
:1027500070916D0180916E0190916F0120E030E0E9
:1027600040E850E40E94C72B609373027093740298
:10277000809375029093760260917001709171015F
:10278000809172019091730120E030E040E85FE3B6
:102790000E94C62B6093770270937802809379022F
:1027A00090937A02089560916C0170916D0180910F
:1027B0006E0190916F0120E030E040E850E40E940B
:1027C000C72B609388027093890280938A0290934A
:1027D0008B026091700170917101809172019091F2
:1027E000730120E030E040E85FE30E94C62B609375
:1027F0008C0270938D0280938E0290938F020895C5
:1028000060916C0170916D0180916E0190916F01EA
:1028100020E030E040E850E40E94C72B60939D0226
:1028200070939E0280939F029093A002609170012A
:1028300070917101809172019091730120E030E0FC
:1028400040E85FE30E94C62B6093A1027093A2024E
:102850008093A3029093A402089560916C017091FB
:102860006D0180916E0190916F0120E030E040E8B1
:1028700050E40E94C72B6093B2027093B30280931E
:10288000B4029093B50260917001709171018091D2
:1028900072019091730120E030E040E85FE30E9414
:1028A000C62B6093B6027093B7028093B8029093E0
:1028B000B902089560916C0170916D0180916E0173
:1028C00090916F0120E030E040E850E40E94C72B77
:1028D0006093C7027093C8028093C9029093CA02A2
:1028E00060917001709171018091720190917301FA
:1028F00020E030E040E85FE30E94C62B6093CB020B
:102900007093CC028093CD029093CE020895609193
:102910006C0170916D0180916E0190916F0120E0CA
:1029200030E040E850E40E94C72B6093DC027093D3
:10293000DD028093DE029093DF026091700170915E
:102940007101809172019091730120E030E040E8C4
:102950005FE30E94C62B6093E0027093E1028093D4
:10296000E2029093E302089560916C0170916D0111
:1029700080916E0190916F0120E030E040E850E4DA
:102980000E94C72B6093F1027093F2028093F302CE
:102990009093F402609170017091710180917201C5
:1029A0009091730120E030E040E85FE30E94C62B85
:1029B0006093F5027093F6028093F7029093F80209
:1029C000089560916C0170916D0180916E019091FC
:1029D0006F0120E030E040E850E40E94C72B609394
:1029E0000603709307038093080390930903609193
:1029F000700170917101809172019091730120E0DA
:102A000030E040E85FE30E94C62B60930A037093B6
:102A10000B0380930C0390930D03089560916C0158
:102A200070916D0180916E0190916F0120E030E016
:102A300040E850E40E94C72B60931B0370931C0373
:102A400080931D0390931E0360917001709171013A
:102A5000809172019091730120E030E040E85FE3E3
:102A60000E94C62B60931F03709320038093210361
:102A700090932203089560916C0170916D01809193
:102A80006E0190916F0120E030E040E850E40E9438
:102A9000C72B60933003709331038093320390937C
:102AA0003303609170017091710180917201909176
:102AB000730120E030E040E85FE30E94C62B6093A2
:102AC000340370933503809336039093370308954E
:102AD0002F923F924F925F926F927F928F929F922E
:102AE000AF92BF92CF92DF92EF92FF920F931F931C
:102AF000DF93CF9300D0CDB7DEB78091470390919D
:102B0000480302979A838983609045037090460337
:102B100081E6882E83E0982E0F2EF0E02F2EF0E035
:102B20003F2EF0EA4F2EF2E45F2EF02DD4015296A4
:102B30008C915297813009F06DC0A0907702B090CF
:102B40007802C0907902D0907A021496ED90FD90B0
:102B50000D911C911797C801B70120E030E040E8C3
:102B600050E40E94C72B9B01AC01C601B5010E9435
:102B70003E2C18160CF44EC0C601B501A8019701F1
:102B80000E94E02D88230CF445C0A0907302B09001
:102B90007402C0907502D0907602F401E080F1805A
:102BA00002811381C601B501A80197010E94E02DA1
:102BB000882384F1C801B70120E030E040E450E40C
:102BC0000E94C72B9B01AC01C601B5010E943E2C9F
:102BD000181604F180918502813019F40894611C63
:102BE000711CD40152961C921092850280E090E0F4
:102BF000A0E0B0E08093770290937802A0937902EE
:102C0000B0937A022092730230927402409275025D
:102C100050927602D40152968C915297813009F0ED
:102C20006DC0A0908C02B0908D02C0908E02D090AA
:102C30008F021496ED90FD900D911C911797C8018D
:102C4000B70120E030E040E850E40E94C72B9B0130
:102C5000AC01C601B5010E943E2C18160CF44EC002
:102C6000C601B501A80197010E94E02D88230CF44C
:102C700045C0A0908802B0908902C0908A02D0908E
:102C80008B02F401E080F18002811381C601B5015D
:102C9000A80197010E94E02D882384F1C801B701A3
:102CA00020E030E040E450E40E94C72B9B01AC01DF
:102CB000C601B5010E943E2C181604F180919A02BB
:102CC000813019F40894611C711CD40152961C9235
:102CD00010929A0280E090E0A0E0B0E080938C0235
:102CE00090938D02A0938E02B0938F02209288025F
:102CF0003092890240928A0250928B02D4015296FD
:102D00008C915297813009F06DC0A090A102B090D3
:102D1000A202C090A302D090A4021496ED90FD9060
:102D20000D911C911797C801B70120E030E040E8F1
:102D300050E40E94C72B9B01AC01C601B5010E9463
:102D40003E2C18160CF44EC0C601B501A80197011F
:102D50000E94E02D88230CF445C0A0909D02B09005
:102D60009E02C0909F02D090A002F401E080F1800A
:102D700002811381C601B501A80197010E94E02DCF
:102D8000882384F1C801B70120E030E040E450E43A
:102D90000E94C72B9B01AC01C601B5010E943E2CCD
:102DA000181604F18091AF02813019F40894611C67
:102DB000711CD40152961C921092AF0280E090E0F8
:102DC000A0E0B0E08093A1029093A202A093A3029E
:102DD000B093A40220929D0230929E0240929F02E4
:102DE0005092A002D40152968C915297813009F0F2
:102DF0006DC0A090B602B090B702C090B802D0905B
:102E0000B9021496ED90FD900D911C911797C80191
:102E1000B70120E030E040E850E40E94C72B9B015E
:102E2000AC01C601B5010E943E2C18160CF44EC030
:102E3000C601B501A80197010E94E02D88230CF47A
:102E400045C0A090B202B090B302C090B402D0903E
:102E5000B502F401E080F18002811381C601B50161
:102E6000A80197010E94E02D882384F1C801B701D1
:102E700020E030E040E450E40E94C72B9B01AC010D
:102E8000C601B5010E943E2C181604F18091C402BF
:102E9000813019F40894611C711CD40152961C9263
:102EA0001092C40280E090E0A0E0B0E08093B6020F
:102EB0009093B702A093B802B093B9022092B202E5
:102EC0003092B3024092B4025092B502D4015296AD
:102ED0008C915297813009F06DC0A090CB02B090D8
:102EE000CC02C090CD02D090CE021496ED90FD9011
:102EF0000D911C911797C801B70120E030E040E820
:102F000050E40E94C72B9B01AC01C601B5010E9491
:102F10003E2C18160CF44EC0C601B501A80197014D
:102F20000E94E02D88230CF445C0A090C702B09009
:102F3000C802C090C902D090CA02F401E080F180BA
:102F400002811381C601B501A80197010E94E02DFD
:102F5000882384F1C801B70120E030E040E450E468
:102F60000E94C72B9B01AC01C601B5010E943E2CFB
:102F7000181604F18091D902813019F40894611C6B
:102F8000711CD40152961C921092D90280E090E0FC
:102F9000A0E0B0E08093CB029093CC02A093CD024E
:102FA000B093CE022092C7023092C8024092C9026A
:102FB0005092CA02D40152968C915297813009F0F6
:102FC0006DC0A090E002B090E102C090E202D0900B
:102FD000E3021496ED90FD900D911C911797C80196
:102FE000B70120E030E040E850E40E94C72B9B018D
:102FF000AC01C601B5010E943E2C18160CF44EC05F
:10300000C601B501A80197010E94E02D88230CF4A8
:1030100045C0A090DC02B090DD02C090DE02D090EE
:10302000DF02F401E080F18002811381C601B50165
:10303000A80197010E94E02D882384F1C801B701FF
:1030400020E030E040E450E40E94C72B9B01AC013B
:10305000C601B5010E943E2C181604F18091EE02C3
:10306000813019F40894611C711CD40152961C9291
:103070001092EE0280E090E0A0E0B0E08093E002E9
:103080009093E102A093E202B093E3022092DC026B
:103090003092DD024092DE025092DF02D40152965D
:1030A0008C915297813009F06DC0A090F502B090DC
:1030B000F602C090F702D090F8021496ED90FD90C1
:1030C0000D911C911797C801B70120E030E040E84E
:1030D00050E40E94C72B9B01AC01C601B5010E94C0
:1030E0003E2C18160CF44EC0C601B501A80197017C
:1030F0000E94E02D88230CF445C0A090F102B0900E
:10310000F202C090F302D090F402F401E080F1806A
:1031100002811381C601B501A80197010E94E02D2B
:10312000882384F1C801B70120E030E040E450E496
:103130000E94C72B9B01AC01C601B5010E943E2C29
:10314000181604F180910303813019F40894611C6E
:10315000711CD40152961C921092030380E090E0FF
:10316000A0E0B0E08093F5029093F602A093F702FE
:10317000B093F8022092F1023092F2024092F302F0
:103180005092F402D40152968C915297813009F0FA
:103190006DC0A0900A03B0900B03C0900C03D090B8
:1031A0000D031496ED90FD900D911C911797C80199
:1031B000B70120E030E040E850E40E94C72B9B01BB
:1031C000AC01C601B5010E943E2C18160CF44EC08D
:1031D000C601B501A80197010E94E02D88230CF4D7
:1031E00045C0A0900603B0900703C0900803D0909C
:1031F0000903F401E080F18002811381C601B50169
:10320000A80197010E94E02D882384F1C801B7012D
:1032100020E030E040E450E40E94C72B9B01AC0169
:10322000C601B5010E943E2C181604F180911803C6
:10323000813019F40894611C711CD40152961C92BF
:103240001092180380E090E0A0E0B0E080930A03C1
:1032500090930B03A0930C03B0930D0320920603ED
:10326000309207034092080350920903D40152960A
:103270008C915297813009F06DC0A0901F03B090DF
:103280002003C0902103D09022031496ED90FD906E
:103290000D911C911797C801B70120E030E040E87C
:1032A00050E40E94C72B9B01AC01C601B5010E94EE
:1032B0003E2C18160CF44EC0C601B501A8019701AA
:1032C0000E94E02D88230CF445C0A0901B03B09011
:1032D0001C03C0901D03D0901E03F401E080F18018
:1032E00002811381C601B501A80197010E94E02D5A
:1032F000882384F1C801B70120E030E040E450E4C5
:103300000E94C72B9B01AC01C601B5010E943E2C57
:10331000181604F180912D03813019F40894611C72
:10332000711CD40152961C9210922D0380E090E003
:10333000A0E0B0E080931F0390932003A0932103AB
:10334000B093220320921B0330921C0340921D0372
:1033500050921E03D40152968C915297813009F0FD
:103360006DC0A0903403B0903503C0903603D09068
:1033700037031496ED90FD900D911C911797C8019D
:10338000B70120E030E040E850E40E94C72B9B01E9
:10339000AC01C601B5010E943E2C18160CF44EC0BB
:1033A000C601B501A80197010E94E02D88230CF405
:1033B00045C0A0903003B0903103C0903203D0904C
:1033C0003303F401E080F18002811381C601B5016D
:1033D000A80197010E94E02D882384F1C801B7015C
:1033E00020E030E040E450E40E94C72B9B01AC0198
:1033F000C601B5010E943E2C181604F180914203CB
:10340000813019F40894611C711CD40152961C92ED
:103410001092420380E090E0A0E0B0E0809334039B
:1034200090933503A0933603B09337032092300373
:10343000309231034092320350923303A981BA8112
:10344000129708F084C20EEB14E06091770270913D
:1034500078028091790290917A02F8012481358175
:10346000468157810E943E2C882361F5609173024A
:10347000709174028091750290917602D8012D911D
:103480003D914D915C910E943E2C8823D9F4F80126
:1034900082898130B9F480E090E0A0E0B0E08093D0
:1034A000770290937802A0937902B0937A022092E7
:1034B000730230927402409275025092760210921A
:1034C0008502128A60918C0270918D0280918E0229
:1034D00090918F02D80114962D913D914D915C9160
:1034E00017970E943E2C882379F56091880270918D
:1034F000890280918A0290918B02F80120813181AA
:10350000428153810E943E2C8823F1F4D8015296C7
:103510008C918130C9F480E090E0A0E0B0E080932D
:103520008C0290938D02A0938E02B0938F02209212
:1035300088023092890240928A0250928B02109245
:103540009A02D80152961C926091A1027091A20237
:103550008091A3029091A402F801248135814681D3
:1035600057810E943E2C882361F560919D027091E5
:103570009E0280919F029091A002D8012D913D91D1
:103580004D915C910E943E2C8823D9F4F8018289E8
:103590008130B9F480E090E0A0E0B0E08093A10237
:1035A0009093A202A093A302B093A40220929D0242
:1035B00030929E0240929F025092A0021092AF025F
:1035C000128A6091B6027091B7028091B802909110
:1035D000B902D80114962D913D914D915C911797A8
:1035E0000E943E2C882379F56091B2027091B3025B
:1035F0008091B4029091B502F8012081318142811D
:1036000053810E943E2C8823F1F4D80152968C916C
:103610008130C9F480E090E0A0E0B0E08093B60291
:103620009093B702A093B802B093B9022092B2026D
:103630003092B3024092B4025092B5021092C4028A
:10364000D80152961C926091CB027091CC0280916D
:10365000CD029091CE02F8012481358146815781B7
:103660000E943E2C882361F56091C7027091C802C8
:103670008091C9029091CA02D8012D913D914D913E
:103680005C910E943E2C8823D9F4F8018289813014
:10369000B9F480E090E0A0E0B0E08093CB0290939A
:1036A000CC02A093CD02B093CE022092C7023092FA
:1036B000C8024092C9025092CA021092D902128ADC
:1036C0006091E0027091E1028091E2029091E30248
:1036D000D80114962D913D914D915C9117970E94C0
:1036E0003E2C882379F56091DC027091DD02809197
:1036F000DE029091DF02F801208131814281538105
:103700000E943E2C8823F1F4D80152968C9181308E
:10371000C9F480E090E0A0E0B0E08093E0029093F4
:10372000E102A093E202B093E3022092DC02309225
:10373000DD024092DE025092DF021092EE02D801CA
:1037400052961C926091F5027091F6028091F702F8
:103750009091F802F80124813581468157810E94B9
:103760003E2C882361F56091F1027091F202809104
:10377000F3029091F402D8012D913D914D915C910D
:103780000E943E2C8823D9F4F80182898130B9F453
:1037900080E090E0A0E0B0E08093F5029093F60224
:1037A000A093F702B093F8022092F1023092F20255
:1037B0004092F3025092F40210920303128A609135
:1037C0000A0370910B0380910C0390910D03D801B3
:1037D00014962D913D914D915C9117970E943E2C2E
:1037E000882379F56091060370910703809108039F
:1037F00090910903F80120813181428153810E9417
:103800003E2C8823F1F4D80152968C918130C9F472
:1038100080E090E0A0E0B0E080930A0390930B0377
:10382000A0930C03B0930D0320920603309207037C
:10383000409208035092090310921803D80152963F
:103840001C9260911F03709120038091210390913D
:103850002203F80124813581468157810E943E2C44
:10386000882361F560911B0370911C0380911D03F7
:1038700090911E03D8012D913D914D915C910E9434
:103880003E2C8823D9F4F80182898130B9F480E094
:1038900090E0A0E0B0E080931F0390932003A093FA
:1038A0002103B093220320921B0330921C03409209
:1038B0001D0350921E0310922D03128A609134034F
:1038C000709135038091360390913703D801149697
:1038D0002D913D914D915C9117970E943E2C88232C
:1038E00079F56091300370913103809132039091AA
:1038F0003303F80120813181428153810E943E2CA3
:103900008823F1F4D80152968C918130C9F480E07B
:1039100090E0A0E0B0E08093340390933503A0934F
:103920003603B09337032092300330923103409234
:1039300032035092330310924203D80152961C92E4
:103940000B5E1F4FB8E000331B0709F07ECDE5E1A9
:10395000F0E08E0E9F1EFCE98F16F4E09F0609F042
:10396000E5C870924603609245030F900F90CF9187
:10397000DF911F910F91FF90EF90DF90CF90BF905C
:10398000AF909F908F907F906F905F904F903F90FF
:103990002F9008954F925F926F927F928F929F9295
:1039A000AF92BF92CF92DF92EF92FF920F931F934D
:1039B000CF93DF93CFE9D1E0688179818A819B81C0
:1039C00020E030E048E352E40E94E02D88230CF030
:1039D0001E86659682E0C734D80771F7C3E7D2E048
:1039E0000F2EF0E0AF2EF0E0BF2EF0E0CF2EF0E093
:1039F000DF2EF02D0F2EF0E0EF2EF0E0FF2EF0EA9C
:103A00000F2FF2E41F2FF02D6C817D818E819F811D
:103A100020E030E040EE50E40E943E2C18164CF0BE
:103A20001A8AAC82BD82CE82DF82E882F9820A8362
:103A30001B83659683E0C534D80731F74090700149
:103A400050907101609072017090730180906C01D0
:103A500090906D01A0906E01B0906F01C0909F0496
:103A6000D090A004CBE9D1E06C817D818E819F81D3
:103A7000A30192010E94E02D88231CF1E880F980C7
:103A80000A811B81C801B701A50194010E94E02DA4
:103A90008823BCF0C501B40120E030E040EE50E4E2
:103AA0000E94C72B9B01AC01C801B7010E943E2CAC
:103AB00018163CF08A89813019F40894C108D1089D
:103AC0001A8A659682E0C334D80771F6D092A004B2
:103AD000C0929F04809147039091480302970297F8
:103AE00008F038C1CEEBD4E060919F017091A00145
:103AF0008091A1019091A2012C813D814E815F8135
:103B00000E943E2C8823B1F460919B0170919C012E
:103B100080919D0190919E01288139814A815B812C
:103B20000E943E2C882331F48A89813019F4109246
:103B3000AD011A8A6091B4017091B5018091B6010E
:103B40009091B7012C813D814E815F810E943E2C76
:103B50008823B1F46091B0017091B1018091B201FC
:103B60009091B301288139814A815B810E943E2C6A
:103B7000882331F48A89813019F41092C2011A8A9B
:103B80006091C9017091CA018091CB019091CC01E3
:103B90002C813D814E815F810E943E2C8823B1F4AF
:103BA0006091C5017091C6018091C7019091C801D3
:103BB000288139814A815B810E943E2C882331F41F
:103BC0008A89813019F41092D7011A8A6091DE0136
:103BD0007091DF018091E0019091E1012C813D81A4
:103BE0004E815F810E943E2C8823B1F46091DA01FE
:103BF0007091DB018091DC019091DD012881398198
:103C00004A815B810E943E2C882331F48A8981306D
:103C100019F41092EC011A8A6091F3017091F40189
:103C20008091F5019091F6012C813D814E815F815B
:103C30000E943E2C8823B1F46091EF017091F00155
:103C40008091F1019091F201288139814A815B8153
:103C50000E943E2C882331F48A89813019F4109215
:103C600001021A8A609108027091090280910A0289
:103C700090910B022C813D814E815F810E943E2CF0
:103C80008823B1F4609104027091050280910602CC
:103C900090910702288139814A815B810E943E2CE4
:103CA000882331F48A89813019F4109216021A8A15
:103CB00060911D0270911E0280911F02909120025E
:103CC0002C813D814E815F810E943E2C8823B1F47E
:103CD0006091190270911A0280911B0290911C024E
:103CE000288139814A815B810E943E2C882331F4EE
:103CF0008A89813019F410922B021A8A609132025B
:103D00007091330280913402909135022C813D8173
:103D10004E815F810E943E2C8823B1F460912E0277
:103D200070912F0280913002909131022881398167
:103D30004A815B810E943E2C882331F48A8981303C
:103D400019F4109240021A8A659688E0C033D807A9
:103D500009F0CACE0E946815DF91CF911F910F9193
:103D6000FF90EF90DF90CF90BF90AF909F908F909B
:103D70007F906F905F904F90089580E480937C00D7
:103D800087E880937A000895EF92FF920F931F9334
:103D9000DF93CF93CDB7DEB72A970FB6F894DEBF87
:103DA0000FBECDBF80E00E941A037C0181E00E941B
:103DB0001A03C701BE016F5F7F4F4AE050E00E94C7
:103DC000133000E010E0C801B7012FE430E040E01C
:103DD00050E00E94472E0E94DD2C20E030EC4FE79F
:103DE00054E40E94422C0E94AA2C6C5F7F4F8F4F9C
:103DF0009F4F0E94DD2C6093730270937402809336
:103E00007502909376026093880270938902809382
:103E10008A0290938B0260939D0270939E0280931E
:103E20009F029093A0026093B2027093B3028093BA
:103E3000B4029093B5026093C7027093C802809356
:103E4000C9029093CA026093DC027093DD028093F2
:103E5000DE029093DF026093F1027093F20280938E
:103E6000F3029093F4026093060370930703809328
:103E700008039093090360931B0370931C038093C2
:103E80001D0390931E03609330037093310380935E
:103E90003203909333032A960FB6F894DEBF0FBE19
:103EA000CDBFCF91DF911F910F91FF90EF900895BB
:103EB000CF92DF92EF92FF920F931F93DF93CF93F6
:103EC000CDB7DEB72A970FB6F894DEBF0FBECDBFD1
:103ED000499B0DC088EE93E028EC30E0F901319762
:103EE000F1F70197D9F74999FECF0E94260FC090AC
:103EF0004703D090480381E0C816D10409F052C0AE
:103F00007D9B21C088EE93E028EC30E0F9013197E9
:103F1000F1F70197D9F77D99FECF60916C0170910F
:103F20006D0180916E0190916F0120E030E040E0E2
:103F300050E40E94C72B60936C0170936D018093D5
:103F40006E0190936F017E9B2DC088EE93E028EC6C
:103F500030E0F9013197F1F70197D9F77E99FECF5B
:103F6000E0906C01F0906D0100916E0110916F0175
:103F7000C801B70120E030E040E050E00E94E02DB1
:103F8000181684F4C801B70120E030E040E050E4A6
:103F90000E94C62B60936C0170936D0180936E013B
:103FA00090936F018EEF9FEFC80ED91E92E0C91655
:103FB000D10460F580E00E941A0381E00E941A0398
:103FC0007C01BE016F5F7F4F4AE050E00E941330DA
:103FD00000E010E0C801B7012FE430E040E050E01D
:103FE0000E94472E0E94DD2C20E030EC4FE754E485
:103FF0000E94422C0E94AA2C0E94DD2C60936C012E
:1040000070936D0180936E0190936F0160916C01CC
:1040100070916D0180916E0190916F0120E030E010
:1040200040E050E00E943E2C181664F080E090E0E2
:10403000A0E0B0E080936C0190936D01A0936E01BD
:10404000B0936F0160916C0170916D0180916E0170
:1040500090916F0120E030E046E952E40E94E02DAB
:10406000882364F080E090E0A6E9B2E480936C01DC
:1040700090936D01A0936E01B0936F012A960FB6D5
:10408000F894DEBF0FBECDBFCF91DF911F910F918E
:10409000FF90EF90DF90CF9008958F929F92AF9214
:1040A000BF92CF92EF920F931F93CF93DF93BEEB0C
:1040B0008B2EB4E09B2ECFE0D0E0BE01882777FDA9
:1040C0008095982F0E94DD2CAB01BC01C40100E05B
:1040D00010E02CE032E4EE24E394CC24C394A0E678
:1040E000AA2EA1E0BA2E0E940D2B219685E190E028
:1040F000880E991EC631D10501F7F1E58F2EF5E046
:104100009F2ECFE0D0E0BE01882777FD8095982FC5
:104110000E94DD2CAB01BC01C40100E010E028E0EE
:1041200032E4EE24E394CC24C394E0E6AE2EE1E046
:10413000BE2E0E940D2B219685E190E0880E991EDF
:10414000C631D10501F7B4EE8B2EB5E09B2EC5E24A
:10415000D0E0BE01882777FD8095982F0E94DD2C46
:10416000AB01BC01C40100E010E02CE032E4EE241D
:10417000E394CC24C394A0E6AA2EA1E0BA2E0E9418
:104180000D2B219685E190E0880E991ECC32D10549
:1041900001F7F7E78F2EF6E09F2EC5E2D0E0BE01D3
:1041A000882777FD8095982F0E94DD2CAB01BC01FC
:1041B000C40100E010E028E032E4EE24E394CC24D3
:1041C000C394E0E6AE2EE1E0BE2E0E940D2B2196B8
:1041D00085E190E0880E991ECC32D10501F7BAE056
:1041E0008B2EB7E09B2ECCE3D0E0BE01882777FD75
:1041F0008095982F0E94DD2CAB01BC01C40100E02A
:1042000010E02CE032E4EE24E394CC24C394A0E646
:10421000AA2EA1E0BA2E0E940D2B219685E190E0F6
:10422000880E991EC334D10501F7FDE98F2EF7E002
:104230009F2ECCE3D0E0BE01882777FD8095982F94
:104240000E94DD2CAB01BC01C40100E010E028E0BD
:1042500032E4EE24E394CC24C394E0E6AE2EE1E015
:10426000BE2E0E940D2B219685E190E0880E991EAE
:10427000C334D10501F7DF91CF911F910F91EF90DA
:10428000CF90BF90AF909F908F900895AF92BF92C4
:10429000CF92EF920F931F93CF93DF93CBE9D1E0AF
:1042A000CE0140E050E060EA72E400E010E020E07F
:1042B00030E0EE24E394CC24C394E0E6AE2EE1E0BB
:1042C000BE2E0E940D2B1A8A659682E0C334D80751
:1042D00039F7DF91CF911F910F91EF90CF90BF9061
:1042E000AF900895AF92BF92CF92EF920F931F932A
:1042F000CF93DF93C3E7D2E0CE0140E050E060EA25
:1043000072E400E010E020E030E0EE24E394CC24FE
:10431000C394F0E6AF2EF1E0BF2E0E940D2B1A8A57
:10432000659683E0C534D80739F7DF91CF911F91A7
:104330000F91EF90CF90BF90AF900895AF92BF9242
:10434000CF92DF92EF92FF920F931F93CF93DF9361
:10435000C1E6D3E06091A4047091A504882777FD9D
:104360008095982F0E94DD2C6B017C0160919C044C
:1043700070919D04882777FD8095982F0E94DD2CF1
:104380008B019C01CE01B701A601A4E0EA2EF4E066
:10439000CF2EE4E5AE2EE1E0BE2E0E940D2B8091E3
:1043A000A4049091A5040A969093A5048093A40474
:1043B000659683E0CA3CD80769F660914A0370911C
:1043C0004B03882777FD8095982F0E94DD2C6B0189
:1043D0007C0160915A0270915B02882777FD80957D
:1043E000982F0E94DD2C8B019C01CE01B701A60104
:1043F000B4E0EB2EA4E0CA2EF4E5AF2EF1E0BF2E20
:104400000E940D2B80914A0390914B030A96909342
:104410004B0380934A03659684E0C333D80769F65B
:1044200060915C0270915D02882777FD8095982FDE
:104430000E94DD2C6B017C0160916A0170916B011F
:10444000882777FD8095982F0E94DD2C8B019C0199
:10445000CE01B701A601E4E0EE2EB4E0CB2EA4E538
:10446000AA2EA1E0BA2E0E940D2B80915C029091A1
:104470005D020A9690935D0280935C02659684E0EB
:10448000CC39D80769F6DF91CF911F910F91FF903A
:10449000EF90DF90CF90BF90AF900895AF92BF9212
:1044A000CF92DF92EF92FF920F931F936091A2043D
:1044B0007091A304882777FD8095982F0E94DD2CAA
:1044C0006B017C016091A6047091A704882777FD99
:1044D0008095982F0E94DD2C8B019C018CE691E049
:1044E000B701A601F8E0EF2EE8E0CE2EBCE4AB2E3B
:1044F000B1E0BB2E0E940D2B1F910F91FF90EF900A
:10450000DF90CF90BF90AF9008950E949128809146
:104510004503909146030F9761F484E16FE040E01A
:1045200051E00E94662A84E16EE14AE051E00E9477
:10453000662A80919F049091A004892B61F484E104
:104540006FE040E051E00E94662A84E16EE142E1C2
:1045500051E00E94662A0E948B2A08950F931F93B0
:10456000CF93DF930E94152F6FE070E00E94662EBC
:104570000196909382018093810103E713E0C1E0EB
:10458000D0E080918101909182018C179D0731F4D8
:10459000F8018081813011F40E9456130B5E1F4F89
:1045A000CF30D10511F02196ECCFDF91CF911F9143
:1045B0000F9108951F920F920FB60F9211242F930F
:1045C0003F934F935F936F937F938F939F93AF939B
:1045D000BF93EF93FF930E94AE22FF91EF91BF91A3
:1045E000AF919F918F917F916F915F914F913F918B
:1045F0002F910F900FBE0F901F901895AF92BF9202
:10460000CF92DF92EF92FF920F931F93609143023C
:1046100070914402882777FD8095982F0E94DD2CA9
:104620006B017C016091830170918401882777FD83
:104630008095982F0E94DD2C8B019C0185E492E0EF
:10464000B701A601E8E0EE2EB8E0CB2EA8E5AA2E31
:10465000A1E0BA2E0E940D2B0E94912885E492E0E1
:104660000E94352B20C00E9430030E94912885E4CF
:1046700092E00E94352B8AE060E04BE151E00E941D
:10468000662A8AE06AE048E251E00E94662A8AE0EF
:1046900064E140E351E00E94662A8AE06EE148E36B
:1046A00051E00E94662A0E948B2A8091A1048823EF
:1046B000D1F21F910F91FF90EF90DF90CF90BF90BC
:1046C000AF90089580E060E040E451E00E94B124A2
:1046D00040914503509146038AE060E00E94C72460
:1046E00089E160E043E451E00E94B12440919F04DD
:1046F0005091A00488E260E00E94C72482E360E059
:1047000047E451E00E94B12440914703509148038F
:1047100088E460E00E94C72408951F93CF93DF933D
:104720000E94D6020E944E220E9446210E949E2193
:104730000E9472210E944D200E9491288CE691E0F7
:104740000E94352B0E948B2A11E054C00E94581FF2
:104750008091470390914803039711F40E94C41E6F
:104760000E94CA1C0E9491280E9462238CE691E05C
:104770000E94352BC1E6D3E0CE010E94352B659611
:1047800084E0CC39D807C1F7CBE9D1E0CE010E9453
:10479000352B659682E0C334D807C1F7C3E7D2E072
:1047A000CE010E94352B659683E0C534D807C1F74A
:1047B00080914703909148030297029750F4CEEB03
:1047C000D4E0CE010E94352B659688E0C033D8072F
:1047D000C1F70E948B2A80919F049091A004181623
:1047E000190634F480914503909146030F9714F015
:1047F0001093490380914903882309F4A7CFDF91DF
:10480000CF911F9108950F931F93E1E6F0E010E818
:10481000108301E0008380E480937C0087E880932C
:104820007A008FE30E94BF2A80B38F7980BB17B9CB
:1048300018B982E390E0909344028093430288E0A9
:1048400090E090938401809383011092A10485E00D
:1048500090E09093480380934703E1E8F0E0808183
:10486000877F808380818B7F80838081826080834B
:1048700080818160808300936F00E1E9F0E08081B6
:10488000877F808380818460808380818D7F808327
:1048900080818E7F80830093710078941F910F91A7
:1048A00008950E9403240E94FE220E948D230E94EC
:1048B000852280E090E008956F927F929F92AF9260
:1048C000BF92CF92DF92EF92FF920F931F93DF93ED
:1048D000CF930F92CDB7DEB7E82E962E85E0480233
:1048E000A00111249E2D9B5F00E010E02CE0A22E81
:1048F00020E0B22EA40EB51E81E1C82E80E0D82E95
:10490000C40ED51E1CC0F301449150E0002E02C01D
:10491000559547950A94E2F74170892F6F2D998339
:104920000E9499280894611C711CF39499816C145D
:104930007D0449F70F5F1F4F91509E1519F0350107
:10494000F92CE1CF0F90CF91DF911F910F91FF9044
:10495000EF90DF90CF90BF90AF909F907F906F903F
:1049600008950F931F93CF93DF93182F062FEA011B
:1049700006C0812F602F0E945C2421961B5F488116
:104980004423B9F7DF91CF911F910F910895EF92D2
:10499000FF920F931F93DF93CF93CDB7DEB7C4562B
:1049A000D0400FB6F894DEBF0FBECDBFF82EE62E76
:1049B00000D000D000D0EDB7FEB731968E010F5F6A
:1049C0001F4FADB7BEB712961C930E93119781E699
:1049D00091E093838283558344830E9460308DB736
:1049E0009EB706960FB6F8949EBF0FBE8DBF8F2D53
:1049F0006E2DA8010E94B124CC59DF4F0FB6F89458
:104A0000DEBF0FBECDBFCF91DF911F910F91FF9001
:104A1000EF900895A1E1B0E0E0E1F5E20C94792E89
:104A20003C017F876E876A01FC01178216828381B1
:104A300081FD03C06FEF7FEF6FC39E012F5F3F4F7C
:104A4000398B288BF3012381EE85FF8523FD85912A
:104A500023FF8191FF87EE87882309F45AC38532AB
:104A600051F4EE85FF8523FD859123FF8191FF871A
:104A7000EE87853229F490E0B3010E943430E2CF12
:104A8000982F10E0882499241032B0F49B3269F0FA
:104A90009C3228F4903251F0933271F40BC09D3265
:104AA00039F0903349F4116028C01260146025C0B9
:104AB000186023C0106121C017FD2AC0892F8053C0
:104AC0008A3078F416FF06C0FAE09F9E902C1124DD
:104AD000980E13C03AE0839E802C1124880E106239
:104AE0000CC09E3221F416FD14C3106406C09C361F
:104AF00011F4106802C0983659F4EE85FF8523FD45
:104B0000959123FF9191FF87EE87992309F0BCCF00
:104B1000892F8554833020F4812F8061905E07C0F7
:104B2000892F8556833008F09FC1812F8F7E86FDA7
:104B300002C076E0972E6FE3F62EF822953619F430
:104B4000F0E4FF2A07C0963619F420E8F22A02C0E2
:104B500091109A94F7FE0AC03BE3391518F45CE310
:104B6000B52E02C0B92CB39427E009C047E049151F
:104B700020F4BB2447E0942EF7CF292DBB24C60197
:104B800004969D878C87F601608171818281938173
:104B9000AE014F5F5F4F0B2D0E94252F6C010981E5
:104BA000202E332400FF04C003FD02C01DE209C013
:104BB000F1FE02C01BE205C0F2FC02C010E001C021
:104BC00010E2C1018C709070892BB9F1112311F49E
:104BD00083E001C084E0881510F088240AC0881A98
:104BE000F3FC07C080E290E0B3010E9434308A9465
:104BF000C9F7112329F0812F90E0B3010E943430CE
:104C000023FE03C00CE812E00EC000E912E00BC066
:104C1000E114F10409F0805290E0B3010E943430B5
:104C20000F5F1F4F05C0EF2CFF24F0E1EF22FF24A0
:104C3000F8018491882361F714C1F7FE12C0BC0CFF
:104C400024FE04C08A81813309F4BA941B141CF039
:104C5000BB24B3942DC0F8E0FB1550F538E0B32E1B
:104C600027C0F6FC25C0892D90E08C159D054CF0E1
:104C70002CEFC2162FEFD20624F030E8F32A01C041
:104C80009A94992049F0E2E0F0E0EC0FFD1FE90D65
:104C9000F11D80818033A1F3F7FE0AC0B92CB394D3
:104CA000892D90E0C816D90614F0992401C09C18EB
:104CB000F7FC03C025E030E009C01C141D041CF003
:104CC00021E030E003C096012F5F3F4F112311F028
:104CD0002F5F3F4F992029F0892D90E00196280FF2
:104CE000391F882D90E02817390714F0882401C057
:104CF000821A4F2C5524C20189709070892B39F08B
:104D000008C080E290E0B3010E9434308A94882089
:104D1000C1F7112329F0812F90E0B3010E943430B4
:104D200043FE07C008C080E390E0B3010E94343026
:104D30008A948820C1F7F7FE46C08601D7FE02C0DC
:104D400000E010E076010894E11CF11CE01AF10A81
:104D500041E050E04C0F5D1FE40EF51E26014B189C
:104D60005108892D90E0AA24BB24A81AB90A5FEF44
:104D70000F3F150729F48EE290E0B3010E94343012
:104D8000C016D10634F0401651061CF4F70180819C
:104D900001C080E3015010400894E11CF11C0A1589
:104DA0001B052CF090E0B3010E943430E0CF0C15CD
:104DB0001D0539F49A81963318F4953311F424FEC5
:104DC00081E390E04BC08A81813309F00F7E90E04F
:104DD000B3010E9434309920A1F08EE290E0B3013B
:104DE0000E94343012E0E1E0F0E0EC0FFD1FE10F33
:104DF000F11D1F5F808190E0B3010E9434309A94CE
:104E000091F744FC03C085E690E002C085E490E0A1
:104E1000B3010E943430D7FC05C0C114D10441F461
:104E200004FF06C0D094C194D108D3948DE201C090
:104E30008BE290E0B3010E94343080E305C08F5FC5
:104E400026EF3FEFC20ED31E3AE0C316D104BCF7E3
:104E500090E0B3010E943430C601C096B3010E94B5
:104E60003430CC84DD8452C1933631F0933799F0DD
:104E7000933509F059C023C0F601808189835E0112
:104E80000894A11CB11C22E030E0C20ED31E21E028
:104E9000E22EF12C12C0F601A080B18016FD03C0F5
:104EA0006FEF7FEF02C0692D70E022E030E0C20EAC
:104EB000D31EC5010E9408307C011F7713C0F60184
:104EC000A080B18016FD03C06FEF7FEF02C0692D97
:104ED00070E022E030E0C20ED31EC5010E94FD2F1B
:104EE0007C01106813FF07C01BC080E290E0B30193
:104EF0000E9434308A94882D90E0E816F906A8F3D1
:104F00000FC0F50117FD859117FF81915F0190E0BA
:104F1000B3010E94343081108A940894E108F108AA
:104F2000E114F10471F7F2C0943611F0993689F565
:104F300017FF08C0F601208131814281538184E04E
:104F400090E00AC0F601808191819C01442737FDE1
:104F50004095542F82E090E0C80ED91E9FE6F92EAE
:104F6000F12257FF09C050954095309521953F4F4C
:104F70004F4F5F4F90E8F92ACA01B901AE014F5F68
:104F80005F4F2AE030E00E948430E82EE889EE1A74
:104F900041C0953721F41F7E2AE030E01CC0197F04
:104FA0009F3661F0903720F4983509F0B2C00FC0F9
:104FB000903739F0983709F0ACC004C028E030E0F1
:104FC0000AC0106114FD146020E130E004C014FD3B
:104FD000166020E132E017FF08C0F60160817181A0
:104FE0008281938144E050E008C0F6018081918184
:104FF000BC0180E090E042E050E0C40ED51EAE015E
:105000004F5F5F4F0E948430E82E5889E51A8FE782
:10501000F82EF122F6FE0BC08EEFF822E91438F4D8
:10502000F4FE07C0F2FC05C09FEEF92202C01E2D5F
:1050300001C0192DF4FE0DC0FE01EE0DF11D8081A1
:10504000803319F4E9EEFE2208C01F5FF2FE05C0AE
:1050500003C08F2D867809F01F5F0F2DF3FC14C05D
:10506000F0FE0FC0181510F09E2C0BC09E2C980C53
:10507000911A182D06C080E290E0B3010E943430EE
:105080001F5F1815C0F304C0181510F4811A01C071
:10509000882404FF0FC080E390E0B3010E94343005
:1050A00002FF1DC001FD03C088E790E00EC088E547
:1050B00090E00BC0802F867891F001FF02C08BE258
:1050C00001C080E2F7FC8DE290E0B3010E94343031
:1050D00006C080E390E0B3010E9434309A94E91452
:1050E000C0F3EA94E1E0F0E0EC0FFD1FEE0DF11DDE
:1050F000808190E0B3010E943430EE2091F706C029
:1051000080E290E0B3010E9434308A948820C1F795
:1051100099CCF30166817781CB016196E2E10C9431
:10512000952EE0E3F8E011928AE0E832F807D9F72B
:105130000895843580F5603370F5262F26952695E1
:105140002695677090E0442399F0E4E52E9FF001E6
:105150001124E80FF91FE05DF74F81E090E002C0F5
:10516000880F991F6A95E2F72081282B20830895E4
:10517000E4E52E9FF0011124E80FF91FE05DF74FE1
:1051800081E090E002C0880F991F6A95E2F7809550
:1051900020812823208308952F923F924F925F927F
:1051A0006F927F928F929F92AF92BF92CF92DF9237
:1051B000EF92FF920F931F93DF93CF93CDB7DEB79C
:1051C0002D970FB6F894DEBF0FBECDBFD82EC62EDA
:1051D000142F022F8417F9F4A62EBB24E22EFF24ED
:1051E0000EC08D2D6A2D41E00E949928C01620F432
:1051F0000894A11CB11C03C00894A108B108C016F2
:1052000028F4EA14FB040CF4FEC0EBCFAE14BF0488
:105210000CF4F9C0E6CF282F30E06017F9F4C9018B
:105220005C01E42EFF240EC08A2D6C2D41E00E940B
:105230009928D11620F40894A11CB11C03C008942D
:10524000A108B108D11628F4EA14FB040CF4DBC061
:10525000EBCFAE14BF040CF4D6C0E6CF842F90E0A1
:105260009A838983C9015C0169817A81681B790B02
:10527000882777FD8095982F0E94DD2C6F83788793
:1052800089879A87202E33244C2C5524B101641928
:105290007509882777FD8095982F0E94DD2C3B01AA
:1052A0004C012F81388549855A850E94422C6B8399
:1052B0007C838D839E8320E030E040E050E00E94BC
:1052C000E02D87FF0DC0C401B30190582F813885B0
:1052D00049855A850E94422C6B837C838D839E83F3
:1052E0000F2EF0E0CF2EF0E0DF2EF0E0EF2EF0E01A
:1052F000FF2EF02D70C0AB868A2D642D41E00E94F8
:105300009928C701B6012B813C814D815E810E94A5
:10531000C72B31C08B85642D41E00E9499281D86E2
:105320001C86C401B30120E030E040E050E00E9460
:10533000E02D181624F4E1E0F0E0FD87EC8700E0B2
:1053400010E0C401B30120E030E040E050E00E94F2
:105350003E2C882314F401E010E08C859D85801B91
:10536000910B480E591EC701B60120E030E040E81D
:105370005FE30E94C62B6B017C0120E030E040E03F
:105380005FE30E94E02D88239CF0C401B30120E07C
:1053900030E040E050E00E94E02D18162CF4241478
:1053A00035040CF0B7CF04C0421453040CF0B2CF54
:1053B0006F81788589859A8520E030E040E050E073
:1053C0000E94E02D181624F40894A11CB11C03C0FF
:1053D0000894A108B1086F81788589859A8520E0B5
:1053E00030E040E050E00E94E02D181634F4E981EE
:1053F000FA81EA15FB053CF07ECF89819A81A816D7
:10540000B9060CF078CF2D960FB6F894DEBF0FBE1C
:10541000CDBFCF91DF911F910F91FF90EF90DF9063
:10542000CF90BF90AF909F908F907F906F905F9044
:105430004F903F902F9008959F92AF92BF92CF923E
:10544000DF92EF92FF920F931F93CF93DF93982EEB
:10545000C62E85E0489FE0011124C05AD04000E0EC
:1054600081E0A82EB12C18C0612F6C0DA501012E72
:1054700002C0440F551F0A94E2F74E215F21012E0E
:1054800002C0559547950A94E2F78D2D0E94992800
:105490001F5F183049F70F5F053061F0FE01E00F24
:1054A000F11DEC56FD4F10E0E491D02ED90CEE2EFC
:1054B000FF24EFCFDF91CF911F910F91FF90EF90DD
:1054C000DF90CF90BF90AF909F900895EF92FF92A2
:1054D0000F931F93CF93DF93F82E062F142F242FB3
:1054E000352FC901EC0195E0E92E08C08E9DC00161
:1054F00011248F0D602F0E941C2A21969E01211BD2
:10550000822F4881442391F7DF91CF911F910F9112
:10551000FF90EF900895CF93DF9380E060E00E94CA
:10552000002BC0E3D8E081E069910E949E2A8AE0C6
:10553000C832D807C1F7DF91CF91089595B1829510
:10554000880F807E9F7D982B95B95F9827E030E08B
:1055500070E08F98CB01022E02C0959587950A9432
:10556000E2F780FF02C02E9A01C02E988F9A215038
:1055700030408FEF2F3F380761F75F9A08951F93F0
:10558000182F579A249A259A269A879A2C985F9AC8
:105590002C9A80E061E20E949E2A106880E0612FD0
:1055A0000E949E2A80E064E00E949E2A80E063E1DF
:1055B0000E949E2A80E06CE00E949E2A80E060E2C9
:1055C0000E949E2A80E06CE00E949E2A80E060E4B7
:1055D0000E949E2A80E060E80E949E2A1F91089502
:1055E000CF93DF93C0E0D0E081E060E00E949E2A8C
:1055F000219681E0C83FD807B9F7DF91CF91089590
:105600001F93182F606480E00E949E2A106880E03B
:10561000612F0E949E2A1F910895AF92BF92CF9250
:10562000EF920F931F93FC01408351836283738336
:105630000483158326833783E08AC18AB48AA38AC8
:1056400081E0828B80E090E0A0E0B0E080879187ED
:10565000A287B38784879587A687B7871F910F9105
:10566000EF90CF90BF90AF9008953F924F925F928E
:105670006F927F928F929F92AF92BF92CF92DF9262
:10568000EF92FF920F931F93CF93DF93EC018A89E0
:10569000882309F469C0688970E0882777FD8095C0
:1056A000982F0E94DD2C20E030E040E05EE30E9475
:1056B000E42D0E942B2C0E94AF2C362E882447C04C
:1056C000092D10E0B801882777FD8095982F0E945A
:1056D000DD2C20E030E040E05EE30E94E42D0E94FB
:1056E000182D6B017C01688179818A819B810E94E0
:1056F000AF2CA92CA60E6C817D818E819F810E948A
:10570000AF2CB82CB60EC301B2010E94DD2CA7014C
:1057100096010E94C72B0E94AA2CEB89FC89E60FF8
:10572000F71F408150E0009510950770107002C07F
:10573000559547950A95E2F741708A2D6B2D0E9489
:10574000992893948889981608F4BACF8394898904
:10575000881650F4839CC001112499242C016624DE
:1057600057FC6094762CEECFDF91CF911F910F9173
:10577000FF90EF90DF90CF90BF90AF909F908F9071
:105780007F906F905F904F903F9008955058BB2747
:10579000AA270ED0C4C1B5D130F0BAD120F031F46F
:1057A0009F3F11F41EF4AAC10EF4E095E7FB77C108
:1057B000E92FC6D180F3BA176207730784079507EC
:1057C00018F071F49EF5F5C10EF4E0950B2EBA2F8A
:1057D000A02D0B01B90190010C01CA01A0011124F7
:1057E000FF27591B99F0593F50F4503E68F11A16A3
:1057F000F040A22F232F342F4427585FF3CF469534
:1058000037952795A795F0405395C9F77EF41F1655
:10581000BA0B620B730B840BBAF09150A1F0FF0F1F
:10582000BB1F661F771F881FC2F70EC0BA0F621F0B
:10583000731F841F48F4879577956795B795F795FB
:105840009E3F08F0B3CF9395880F08F09927EE0F8D
:1058500097958795089596D180F09F3740F49111E0
:105860000EF4A8C160E070E080E89FE3089526F0A0
:105870001B16611D711D811D18C132C1ECD008F4C9
:1058800081E008950CD04BC143D140F03AD130F0C3
:1058900021F45F3F19F003C151118CC12FC150D1C8
:1058A00098F39923C9F35523B1F3951B550BBB27E7
:1058B000AA2762177307840738F09F5F5F4F220F94
:1058C000331F441FAA1FA9F333D00E2E3AF0E0E88D
:1058D00030D091505040E695001CCAF729D0FE2FD9
:1058E00027D0660F771F881FBB1F2617370748076B
:1058F000AB07B0E809F0BB0B802DBF01FF27935821
:105900005F4F2AF09E3F510568F0C9C053C15F3F09
:10591000ECF3983EDCF3869577956795B795F79508
:105920009F5FC9F7880F911D9695879597F9089500
:10593000E1E0660F771F881FBB1F6217730784079C
:10594000BA0720F0621B730B840BBA0BEE1F88F7AB
:10595000E095089504D06894B1112CC10895F8D051
:1059600088F09F5790F0B92F9927B751A0F0D1F048
:10597000660F771F881F991F1AF0BA95C9F712C0D2
:10598000B13081F016D1B1E0089513C1672F782F9F
:105990008827B85F39F0B93FCCF38695779567953E
:1059A000B395D9F73EF490958095709561957F4FAA
:1059B0008F4F9F4F0895E89409C097FB3EF4909550
:1059C0008095709561957F4F8F4F9F4F9923A9F0D8
:1059D000F92F96E9BB279395F69587957795679567
:1059E000B795F111F8CFFAF4BB0F11F460FF1BC0AB
:1059F0006F5F7F4F8F4F9F4F16C0882311F096E93E
:105A000011C0772321F09EE8872F762F05C06623EB
:105A100071F096E8862F70E060E02AF09A95660FA4
:105A2000771F881FDAF7880F9695879597F908955D
:105A3000A9D080F09F3740F491110EF0BBC060E018
:105A400070E080E89FEB089526F41B16611D711D20
:105A5000811D2BC045C0990F0008550FAA0BE0E827
:105A6000FEEF16161706E807F907C0F01216130620
:105A7000E407F50798F0621B730B840B950B39F460
:105A80000A2661F0232B242B252B21F408950A26C6
:105A900009F4A140A6958FEF811D811D089597F906
:105AA0009F6780E870E060E00895882371F47723B1
:105AB00021F09850872B762F07C0662311F4992781
:105AC0000DC09051862B70E060E02AF09A95660F29
:105AD000771F881FDAF7880F9695879597F90895AD
