:100000000C946D020C948A020C948A020C948A025D
:100010000C948A020C948A020C948A020C948A0230
:100020000C948A020C948A020C948A070C94C507DB
:100030000C948A020C948A020C948A020C948A0210
:100040000C948A020C948A020C948A020C948A0200
:100050000C9402040C948A020C948A020C943F04BF
:100060000C948A020C948A020C948A020C948A02E0
:100070000C948A020C948A020C948A020C948A02D0
:100080000C948A020C948A020C948A020C948A02C0
:100090000C948A020C948A020C948A020C948A02B0
:1000A0000C948A020C948A020C948A021F071C0783
:1000B00019071607130710070D070A070707040794
:1000C0000107FE06FB06F806F506F206EF06EC064B
:1000D000E906E606E306E006DD06DA06D706D406FC
:1000E000D106CE06CB06C806C506C206BF06BC06AC
:1000F000B906B606B306B006AD06AA06A706A4065C
:10010000A1069E069B069806950692068F068C060B
:1001100089068606830680067D067A0677067406BB
:1001200071066E066B066806650662065F060001CC
:10013000000062011200020000740143000300008D
:10014000B7010401030904BB011402030904D1012E
:100150001603030904E9010C0001C11201803601F4
:1001600081361201000202000010C0167A0400015C
:100170000102030109024300020100C03209040028
:100180000001020201000524001001052401010103
:10019000042402060524060001070582031000401E
:1001A00009040100020A00000007050302400000E4
:1001B0000705840240000004030904140359006F7A
:1001C000007500720020004E0061006D00650000A7
:1001D00000160355005300420020005300650072D2
:1001E00000690061006C0000000C03310032003334
:1001F000003400350000006E616E00696E6600001C
:100200000000000000005F00000007000700147FEE
:10021000147F14242A7F2A12231308646236495556
:1002200022500005030000001C2241000041221C56
:100230000014083E081408083E080800503000006A
:100240000808080808006060000020100804023E4A
:100250005149453E00427F4000426151494621419B
:10026000454B311814127F1027454545393C4A4902
:10027000493001710905033649494936064949297A
:100280001E003636000000563600000814224100D9
:1002900014141414140041221408020151090632E6
:1002A0004979413E7E1111117E7F494949363E41CF
:1002B0004141227F4141221C7F494949417F09092F
:1002C00009013E4149497A7F0808087F00417F4182
:1002D000002040413F017F081422417F40404040C0
:1002E0007F020C027F7F0408107F3E4141413E7F28
:1002F000090909063E4151215E7F091929464649EF
:1003000049493101017F01013F4040403F1F2040EA
:10031000201F3F4038403F631408146307087008EB
:10032000076151494543007F414100020408102004
:100330000041417F0004020102044040404040006F
:100340000102040020545454787F4844443838440F
:10035000444420384444487F3854545418087E0993
:1003600001020C5252523E7F0804047800447D4042
:10037000002040443D007F1028440000417F4000A1
:100380007C041804787C0804047838444444387C9D
:1003900014141408081414187C7C08040408485425
:1003A000545420043F4440203C4040207C1C2040CA
:1003B000201C3C4030403C44281028440C505050F5
:1003C0003C4464544C44000836410000007F000067
:1003D00000413608001008081008784641467800A9
:1003E000407A10F35A00A0724E18090010A5D4E804
:1003F0000000E87648170000E40B54020000CA9A97
:100400003B000000E1F505000080969800000040E8
:10041000420F000000A0860100000010270000002D
:1004200000E803000000006400000000000A000073
:100430000000000100000000002C76D888DC674F27
:100440000823DFC1DFAE59E1B1B796E5E3E453C657
:100450003AE651997696E8E6C28426EB898C9B624F
:10046000ED407C6FFCEFBC9C9F40F2BAA56FA5F4F9
:1004700090055A2AF75C936B6CF9676DC11BFCE021
:10048000E40D47FEF520E6B500D0ED902E03009474
:100490003577050080841E080000204E0A00000009
:1004A000C80C333333330F986E12831141EF8D2113
:1004B00014893BE65516CFFEE6DB18D1844B381B7A
:1004C000F77C1D901DA4BBE424203284725E22813F
:1004D00000C9F124ECA1E53D270011241FBECFEF98
:1004E000DAE0DEBFCDBF12E0A0E0B1E0E4E8F6E282
:1004F00002C005900D92AC37B107D9F714E0ACE714
:10050000B2E001C01D92AC37B107E1F70E947A0456
:100510000C9440130C94000020917C0230917D02D9
:1005200040917E0250917F0260918400709185001D
:1005300080E090E0A90133272227620F731F841FF8
:10054000951F0E94041020E030E040E854E40E942F
:10055000BA1020E034E244EF5AE40E949C0F089560
:10056000FF920F931F93CF93DF938C01FF24C62F2D
:10057000D0E021970E945C052FEF8F3F9207D1F3C7
:100580008A30910569F08D30910551F0F801EF0D39
:10059000F11D8083F3948F2D90E08C179D0754F309
:1005A0000F0D111DF8011082DF91CF911F910F9156
:1005B000FF900895CF93DF93EC0103C00E94AF0535
:1005C000219688818823D1F78DE00E94AF058AE0CB
:1005D0000E94AF05DF91CF910895482F9B0190E0D5
:1005E00001C09F5FF901E90FF11D80818823C9F7E0
:1005F00085E0989FC001112462E070E00E941D1107
:10060000709561957F4F862F865D18160CF080E0FF
:10061000642FA9010E948C0E08958FE30E94E50EBD
:1006200080B38F7980BB84B18C6084B90E9440050F
:1006300085B5856085BDE1E8F0E0808185608083D7
:10064000EEE6F0E0808181608083EFE6F0E080817B
:100650008160808378940895AF92BF92CF92DF92A9
:10066000EF92FF920F931F93DF93CF93CDB7DEB737
:10067000E4970FB6F894DEBF0FBECDBF5B016C01EF
:100680007E010894E11CF11CC70160E071E00E944A
:100690008012D7010D900020E9F78D010150104024
:1006A0000E191F09EDB7FEB738970FB6F894FEBFC5
:1006B0000FBEEDBF3196ADB7BEB71296FC92EE926B
:1006C000119785E391E093838283A482B582C682E9
:1006D000D7820E94BE12EDB7FEB738960FB6F894D7
:1006E000FEBF0FBEEDBFC701B8010E9411068DE02D
:1006F0000E94AF058AE00E94AF0502C0109274020A
:100700000E945C0582369105C9F781E080937402EE
:10071000E4960FB6F894DEBF0FBECDBFCF91DF9148
:100720001F910F91FF90EF90DF90CF90BF90AF900F
:100730000895CF92DF92EF92FF920F931F93DF9372
:10074000CF93CDB7DEB7A0970FB6F894DEBF0FBE3C
:10075000CDBF6C017E010894E11CF11CC7016BE662
:1007600071E00E948012D7010D900020E9F78D0101
:10077000015010400E191F090E948C02EDB7FEB700
:1007800038970FB6F894FEBF0FBEEDBF3196ADB7E8
:10079000BEB71296FC92EE92119729E731E03383AF
:1007A000228364837583868397830E94BE12EDB78C
:1007B000FEB738960FB6F894FEBF0FBEEDBFC70167
:1007C000B8010E94110605C00E94AF050894C11C23
:1007D000D11CD6018C918823B9F78DE00E94AF051A
:1007E0008AE00E94AF05A0960FB6F894DEBF0FBE58
:1007F000CDBFCF91DF911F910F91FF90EF90DF90D0
:10080000CF9008951F920F920FB60F9211242F933D
:100810003F934F935F936F937F938F939F93AF9388
:10082000BF93EF93FF9380917C0290917D02A09102
:100830007E02B0917F020196A11DB11D80937C02C2
:1008400090937D02A0937E02B0937F028091740208
:10085000882321F086E891E00E949903FF91EF91AF
:10086000BF91AF919F918F917F916F915F914F91C8
:100870003F912F910F900FBE0F901F9018951F92D0
:100880000F920FB60F9211242F933F934F935F93C4
:100890006F937F938F939F93AF93BF93EF93FF9348
:1008A0008FB182958695877080FF13C08EEE92E09F
:1008B00028EC30E0F9013197F1F70197D9F77D99EC
:1008C000FECF80917402882321F089E991E00E9493
:1008D0009903FF91EF91BF91AF919F918F917F917C
:1008E0006F915F914F913F912F910F900FBE0F909D
:1008F0001F9018956F927F928F929F92AF92BF92A6
:10090000CF92DF92EF92FF920F931F93DF93CF93DB
:10091000CDB7DEB7A0970FB6F894DEBF0FBECDBF40
:1009200080E88093610081E0809361000E940D0364
:1009300081E160EB71E00E94ED0288E16CEB71E017
:100940000E94ED020E94B10E0E9459058823E1F336
:100950000E945B078823C1F388EC91E00E94990311
:1009600083E092E00E949903EE24FF2487016E0148
:100970000894C11CD11C89E1882E82E0982EB8EC25
:10098000AB2EB12CA4E06A2EF8E07F2E0E94B70CAB
:100990000E948C022DB73EB7285030400FB6F89415
:1009A0003EBF0FBE2DBFEDB7FEB73196ADB7BEB798
:1009B0001296DC92CE921197938282826483758321
:1009C000868397830E94BE122DB73EB7285F3F4FA4
:1009D0000FB6F8943EBF0FBE2DBF85E1B6010E9451
:1009E000ED02E114F1040105110521F48FE192E01B
:1009F0000E9499030E94B10EE114F1040105110552
:100A000021F488E392E00E94990388EE93E0F501D7
:100A10003197F1F70197D9F7C801B70129E130E023
:100A200040E050E00E94301161157105810591058B
:100A300039F485B1862585B980E592E00E94990355
:100A4000C801B70122E330E040E050E00E943011DD
:100A50006A3071058105910569F485B1872585B9ED
:100A600082E692E00E94990363E670E080E090E005
:100A70000E942C030894E11CF11C011D111D86CF5E
:100A800081E08093D70080EA8093D80082E189BD1D
:100A900009B400FEFDCF80E98093D8001092E000F9
:100AA00010928002109281028CE08093E200789490
:100AB00008958091800208952FB7F8948091800264
:100AC000882369F083E08093E9009BE68091E80049
:100AD00085FD09C082FF03C09093E800F7CF2FBFC8
:100AE0002FEF3FEF0CC09091F1008091E80085FD61
:100AF00003C08BE68093E8002FBF292F30E0C901A7
:100B000008952FB7F89480918002882311F490E023
:100B100010C083E08093E9009091F200992349F49A
:100B20008091E80082FF05C085FD03C08BE68093BD
:100B3000E8002FBF892F089580918002882371F0EB
:100B40009FB7F89483E08093E9002BE602C02093DE
:100B5000E8008091E80085FDFACF9FBF0895482FF7
:100B6000809180028823D9F12FB7F89484E0809394
:100B7000E90080918302882341F08091E80085FD9F
:100B800002C02FBF12C0109283029091E400975EC2
:100B900034E08091E80085FD13C02FBF8091E40010
:100BA000891729F481E0809383028FEF0895809163
:100BB00080028823A1F02FB7F8943093E900E9CFA1
:100BC0004093F1008091E80085FD03C08AE38093A3
:100BD000E80085E0809382022FBF80E008958FEFC8
:100BE0000895282F80918002882351F09FB7F894B0
:100BF00084E08093E9008091E80085FD03C09FBFF9
:100C00008FEF08952093F1008091E80085FD03C0E7
:100C10008AE38093E80085E0809382029FBF80E0B2
:100C20000895CF93DF93EC0180918002882309F42B
:100C30001CC13FB7F89484E08093E900809183025F
:100C4000882309F408C18091E80085FD02C03FBFF8
:100C50000CC110928302FFC09091E400975E8091D6
:100C6000E80085FD13C03FBF8091E400891721F49F
:100C700081E080938302F9C080918002882309F487
:100C8000F4C03FB7F894B093E900E9CF8091F20047
:100C9000242F281B822F90E06817790708F4262F4D
:100CA000822F90E08134910508F0C6C08A5A9F4F88
:100CB000FC01EE0FFF1F0590F491E02D099489913E
:100CC0008093F10089918093F10089918093F100E4
:100CD00089918093F10089918093F10089918093AB
:100CE000F10089918093F10089918093F1008991BD
:100CF0008093F10089918093F10089918093F100B4
:100D000089918093F10089918093F100899180937A
:100D1000F10089918093F10089918093F10089918C
:100D20008093F10089918093F10089918093F10083
:100D300089918093F10089918093F100899180934A
:100D4000F10089918093F10089918093F10089915C
:100D50008093F10089918093F10089918093F10053
:100D600089918093F10089918093F100899180931A
:100D7000F10089918093F10089918093F10089912C
:100D80008093F10089918093F10089918093F10023
:100D900089918093F10089918093F10089918093EA
:100DA000F10089918093F10089918093F1008991FC
:100DB0008093F10089918093F10089918093F100F3
:100DC00089918093F10089918093F10089918093BA
:100DD000F10089918093F10089918093F1008991CC
:100DE0008093F10089918093F10089918093F100C3
:100DF00089918093F10089918093F100899180938A
:100E0000F10089918093F10089918093F10089919B
:100E10008093F10089918093F10089918093F10092
:100E200089918093F10089918093F1008991809359
:100E3000F10089918093F10089918093F100809174
:100E4000E80085FD02C05093E800621B7109A09381
:100E500082023FBF04C0B4E040E45AE3A5E061155C
:100E6000710509F0F9CE80E001C08FEFDF91CF91DD
:100E700008959FB7F89480918202882341F084E01E
:100E80008093E9008AE38093E800109282029FBF7A
:100E90000895609175027091760280917702909129
:100EA0007802089580917902089580917A020895D8
:100EB00080917B020895809181020895282F9FB729
:100EC000F89480918002882339F082E08093E900D1
:100ED0008091E80085FD03C09FBF8FEF089581EAF0
:100EE0008093F10080E28093F1001092F100109263
:100EF000F1001092F1001092F10081E08093F10076
:100F00001092F1002093F1008AE38093E8009FBFE4
:100F100080E008951F920F920FB60F9211248F93C5
:100F20009F938091E1001092E100982F83FF11C000
:100F30001092E90081E08093EB001092EC0082E1D6
:100F40008093ED0088E08093F00010928002109270
:100F5000810292FF13C080918002882379F08091F2
:100F60008202882359F0815080938202882331F4D1
:100F700084E08093E9008AE38093E8009F918F9159
:100F80000F900FBE0F901F9018951F920F920FB6E3
:100F90000F9211240F931F932F933F934F935F93BF
:100FA0006F937F938F939F93AF93BF93EF93FF9331
:100FB0001092E9008091E80083FF3CC14091F1006C
:100FC0003091F1008091F100682F70E02091F100E4
:100FD000922F80E0682B792B8091F100A82FB0E050
:100FE0002091F100922F80E0A82BB92B1091F100F5
:100FF0000091F10082EF8093E800363009F05AC08A
:1010000025E331E0A90145505040F901379785911A
:1010100094918617970701F5FA01859194918A17A3
:101020009B07D1F49A012E5F3F4FF90165917491AE
:101030002E5F3F4FF9014491212F30E0902F80E047
:10104000282B392B2F3F310519F010F02FEF30E00E
:10105000241758F4422F09C0295F3F4F495F5F4F63
:10106000F1E02F353F0789F6E5C05EEF8091E8009B
:10107000282F30E0C90185709070892BB9F322FDCB
:10108000DCC0342F413108F030E1232FCB0106C002
:10109000FC010196E491E093F10021502223C1F775
:1010A000630F711D431B5093E8004423F9F6303160
:1010B000E9F2C3C0353061F48EEF8093E80080918F
:1010C000E80080FFFCCF862F80688093E300B5C0E6
:1010D000393051F5442309F0ADC06093800210927D
:1010E0008102109282028EEF8093E80088E591E001
:1010F00021E02093E900FC010196E491E093EB00EC
:10110000EE2369F0AC014F5F5F4FFC018491809347
:10111000EC00CA010196FA0134913093ED002F5F83
:10112000253039F78EE181C0383061F4403809F05C
:1011300081C08091E80080FFFCCF80918002809385
:10114000F10050C0313289F4413A09F073C0809106
:10115000E80080FFFCCFE5E7F2E081918093F100A9
:1011600082E0EC37F807C9F73DC03032A1F44132D4
:1011700009F060C08091E80082FFFCCFE5E7F2E073
:101180008091F100819382E0EC37F807C9F78BEF8B
:101190008093E80027C0323251F4413209F04AC04E
:1011A000609381028091E80080FFFCCF1BC0332355
:1011B000E9F48091E80080FFFCCF423811F080E034
:1011C0000DC0A093E9008091EB0090E025E096959A
:1011D00087952A95E1F781701092E9008093F100DC
:1011E0001092F1008EEF8093E80027C0313011F0AB
:1011F000333001F54230F1F4672BE1F42A2F2F77D9
:10120000822F81508430B0F48EEF8093E8002093D9
:10121000E900333079F089E18093EB0081E090E0E0
:1012200002C0880F991F2A95E2F78093EA00109276
:10123000EA0003C081E28093EB00FF91EF91BF9140
:10124000AF919F918F917F916F915F914F913F915E
:101250002F911F910F910F900FBE0F901F90189517
:10126000A1E1B0E0E6E3F9E00C9452113C017F8784
:101270006E876A01FC0117821682838181FD03C09B
:101280006FEF7FEF6FC39E012F5F3F4F398B288B2E
:10129000F3012381EE85FF8523FD859123FF819155
:1012A000FF87EE87882309F45AC3853251F4EE850F
:1012B000FF8523FD859123FF8191FF87EE8785328E
:1012C00029F490E0B3010E949212E2CF982F10E02F
:1012D000882499241032B0F49B3269F09C3228F4AF
:1012E000903251F0933271F40BC09D3239F090334B
:1012F00049F4116028C01260146025C0186023C032
:10130000106121C017FD2AC0892F80538A3078F4DC
:1013100016FF06C0FAE09F9E902C1124980E13C071
:101320003AE0839E802C1124880E10620CC09E32FD
:1013300021F416FD14C3106406C09C3611F4106825
:1013400002C0983659F4EE85FF8523FD959123FF61
:101350009191FF87EE87992309F0BCCF892F85549F
:10136000833020F4812F8061905E07C0892F8556DD
:10137000833008F09FC1812F8F7E86FD02C076E00A
:10138000972E6FE3F62EF822953619F4F0E4FF2A33
:1013900007C0963619F420E8F22A02C091109A94F8
:1013A000F7FE0AC03BE3391518F45CE3B52E02C022
:1013B000B92CB39427E009C047E0491520F4BB24B9
:1013C00047E0942EF7CF292DBB24C60104969D87B4
:1013D0008C87F6016081718182819381AE014F5FBC
:1013E0005F4F0B2D0E949D116C010981202E33242B
:1013F00000FF04C003FD02C01DE209C0F1FE02C0EF
:101400001BE205C0F2FC02C010E001C010E2C10105
:101410008C709070892BB9F1112311F483E001C015
:1014200084E0881510F088240AC0881AF3FC07C0ED
:1014300080E290E0B3010E9492128A94C9F71123CE
:1014400029F0812F90E0B3010E94921223FE03C085
:1014500007EF11E00EC00BEF11E00BC0E114F10437
:1014600009F0805290E0B3010E9492120F5F1F4F6B
:1014700005C0EF2CFF24F0E1EF22FF24F801849156
:10148000882361F714C1F7FE12C0BC0C24FE04C00F
:101490008A81813309F4BA941B141CF0BB24B394E1
:1014A0002DC0F8E0FB1550F538E0B32E27C0F6FC50
:1014B00025C0892D90E08C159D054CF02CEFC216AF
:1014C0002FEFD20624F030E8F32A01C09A94992035
:1014D00049F0E2E0F0E0EC0FFD1FE90DF11D808125
:1014E0008033A1F3F7FE0AC0B92CB394892D90E0A4
:1014F000C816D90614F0992401C09C18F7FC03C043
:1015000025E030E009C01C141D041CF021E030E08F
:1015100003C096012F5F3F4F112311F02F5F3F4F04
:10152000992029F0892D90E00196280F391F882DE8
:1015300090E02817390714F0882401C0821A4F2C34
:101540005524C20189709070892B39F008C080E25F
:1015500090E0B3010E9492128A948820C1F711236F
:1015600029F0812F90E0B3010E94921243FE07C040
:1015700008C080E390E0B3010E9492128A94882010
:10158000C1F7F7FE46C08601D7FE02C000E010E0BA
:1015900076010894E11CF11CE01AF10A41E050E0E8
:1015A0004C0F5D1FE40EF51E26014B185108892DC6
:1015B00090E0AA24BB24A81AB90A5FEF0F3F1507D1
:1015C00029F48EE290E0B3010E949212C016D10677
:1015D00034F0401651061CF4F701808101C080E30D
:1015E000015010400894E11CF11C0A151B052CF059
:1015F00090E0B3010E949212E0CF0C151D0539F462
:101600009A81963318F4953311F424FE81E390E027
:101610004BC08A81813309F00F7E90E0B3010E94B4
:1016200092129920A1F08EE290E0B3010E949212F2
:1016300012E0E1E0F0E0EC0FFD1FE10FF11D1F5F94
:10164000808190E0B3010E9492129A9491F744FC39
:1016500003C085E690E002C085E490E0B3010E94FB
:101660009212D7FC05C0C114D10441F404FF06C096
:10167000D094C194D108D3948DE201C08BE290E064
:10168000B3010E94921280E305C08F5F26EF3FEF07
:10169000C20ED31E3AE0C316D104BCF790E0B301EA
:1016A0000E949212C601C096B3010E949212CC848D
:1016B000DD8452C1933631F0933799F0933509F0B8
:1016C00059C023C0F601808189835E010894A11C62
:1016D000B11C22E030E0C20ED31E21E0E22EF12C3C
:1016E00012C0F601A080B18016FD03C06FEF7FEF3E
:1016F00002C0692D70E022E030E0C20ED31EC501A9
:101700000E9487127C011F7713C0F601A080B18070
:1017100016FD03C06FEF7FEF02C0692D70E022E07D
:1017200030E0C20ED31EC5010E9475127C01106804
:1017300013FF07C01BC080E290E0B3010E94921229
:101740008A94882D90E0E816F906A8F30FC0F501F9
:1017500017FD859117FF81915F0190E0B3010E9411
:10176000921281108A940894E108F108E114F104BE
:1017700071F7F2C0943611F0993689F517FF08C059
:10178000F601208131814281538184E090E00AC0DA
:10179000F601808191819C01442737FD4095542FAB
:1017A00082E090E0C80ED91E9FE6F92EF12257FF85
:1017B00009C050954095309521953F4F4F4F5F4F51
:1017C00090E8F92ACA01B901AE014F5F5F4F2AE0E4
:1017D00030E00E94E212E82EE889EE1A41C0953707
:1017E00021F41F7E2AE030E01CC0197F9F3661F093
:1017F000903720F4983509F0B2C00FC0903739F017
:10180000983709F0ACC004C028E030E00AC010618D
:1018100014FD146020E130E004C014FD166020E1E6
:1018200032E017FF08C0F6016081718182819381E7
:1018300044E050E008C0F60180819181BC0180E065
:1018400090E042E050E0C40ED51EAE014F5F5F4F06
:101850000E94E212E82E5889E51A8FE7F82EF1224D
:10186000F6FE0BC08EEFF822E91438F4F4FE07C040
:10187000F2FC05C09FEEF92202C01E2D01C0192DF9
:10188000F4FE0DC0FE01EE0DF11D8081803319F4D0
:10189000E9EEFE2208C01F5FF2FE05C003C08F2DD7
:1018A000867809F01F5F0F2DF3FC14C0F0FE0FC007
:1018B000181510F09E2C0BC09E2C980C911A182D08
:1018C00006C080E290E0B3010E9492121F5F1815DB
:1018D000C0F304C0181510F4811A01C0882404FF55
:1018E0000FC080E390E0B3010E94921202FF1DC07E
:1018F00001FD03C088E790E00EC088E590E00BC0D2
:10190000802F867891F001FF02C08BE201C080E257
:10191000F7FC8DE290E0B3010E94921206C080E3D2
:1019200090E0B3010E9492129A94E914C0F3EA94F1
:10193000E1E0F0E0EC0FFD1FEE0DF11D808190E085
:10194000B3010E949212EE2091F706C080E290E06F
:10195000B3010E9492128A948820C1F799CCF301B6
:1019600066817781CB016196E2E10C946E11E4E827
:10197000F2E0119284E0EC37F807D9F70895843546
:1019800080F5603370F5262F26952695269567708D
:1019900090E0442399F0E4E52E9FF0011124E80F34
:1019A000F91FEC57FD4F81E090E002C0880F991FAE
:1019B0006A95E2F72081282B20830895E4E52E9F85
:1019C000F0011124E80FF91FEC57FD4F81E090E082
:1019D00002C0880F991F6A95E2F78095208128231D
:1019E000208308952F923F924F925F926F927F9241
:1019F0008F929F92AF92BF92CF92DF92EF92FF921F
:101A00000F931F93DF93CF93CDB7DEB72D970FB60C
:101A1000F894DEBF0FBECDBFD82EC62E142F022FD6
:101A20008417F9F4A62EBB24E22EFF240EC08D2DC0
:101A30006A2D41E00E94BF0CC01620F40894A11C3E
:101A4000B11C03C00894A108B108C01628F4EA1418
:101A5000FB040CF4FEC0EBCFAE14BF040CF4F9C0D1
:101A6000E6CF282F30E06017F9F4C9015C01E42EBD
:101A7000FF240EC08A2D6C2D41E00E94BF0CD116B0
:101A800020F40894A11CB11C03C00894A108B1085B
:101A9000D11628F4EA14FB040CF4DBC0EBCFAE142F
:101AA000BF040CF4D6C0E6CF842F90E09A838983DC
:101AB000C9015C0169817A81681B790B882777FDF0
:101AC0008095982F0E9406106F83788789879A8760
:101AD000202E33244C2C5524B10164197509882714
:101AE00077FD8095982F0E9406103B014C012F81B5
:101AF000388549855A850E949C0F6B837C838D8332
:101B00009E8320E030E040E050E00E94B61087FF66
:101B10000DC0C401B30190582F81388549855A857D
:101B20000E949C0F6B837C838D839E830F2EF0E03D
:101B3000CF2EF0E0DF2EF0E0EF2EF0E0FF2EF02DC4
:101B400070C0AB868A2D642D41E00E94BF0CC70196
:101B5000B6012B813C814D815E810E94340F31C0E2
:101B60008B85642D41E00E94BF0C1D861C86C4013C
:101B7000B30120E030E040E050E00E94B6101816BB
:101B800024F4E1E0F0E0FD87EC8700E010E0C40120
:101B9000B30120E030E040E050E00E94980F88233D
:101BA00014F401E010E08C859D85801B910B480E9C
:101BB000591EC701B60120E030E040E85FE30E9413
:101BC000330F6B017C0120E030E040E05FE30E94D6
:101BD000B61088239CF0C401B30120E030E040E05F
:101BE00050E00E94B61018162CF4241435040CF0A2
:101BF000B7CF04C0421453040CF0B2CF6F81788584
:101C000089859A8520E030E040E050E00E94B610DF
:101C1000181624F40894A11CB11C03C00894A10850
:101C2000B1086F81788589859A8520E030E040E0B1
:101C300050E00E94B610181634F4E981FA81EA15D2
:101C4000FB053CF07ECF89819A81A816B9060CF07D
:101C500078CF2D960FB6F894DEBF0FBECDBFCF91D3
:101C6000DF911F910F91FF90EF90DF90CF90BF9089
:101C7000AF909F908F907F906F905F904F903F902C
:101C80002F9008959F92AF92BF92CF92DF92EF92E2
:101C9000FF920F931F93CF93DF93982EC62E85E06C
:101CA000489FE0011124C05AD04000E081E0A82EF6
:101CB000B12C18C0612F6C0DA501012E02C0440F7C
:101CC000551F0A94E2F74E215F21012E02C055955F
:101CD00047950A94E2F78D2D0E94BF0C1F5F1830C4
:101CE00049F70F5F053061F0FE01E00FF11DE15093
:101CF000FE4F10E0E491D02ED90CEE2EFF24EFCF52
:101D0000DF91CF911F910F91FF90EF90DF90CF90D7
:101D1000BF90AF909F900895EF92FF920F931F9303
:101D2000CF93DF93F82E062F142F242F352FC901C0
:101D3000EC0195E0E92E08C08E9DC00111248F0DA5
:101D4000602F0E94420E21969E01211B822F488106
:101D5000442391F7DF91CF911F910F91FF90EF9066
:101D60000895CF93DF9380E060E00E94260FC4E8DF
:101D7000D2E081E069910E94C40E84E0CC37D8079C
:101D8000C1F7DF91CF91089595B18295880F807E3C
:101D90009F7D982B95B95F9827E030E070E08F9891
:101DA000CB01022E02C0959587950A94E2F780FF39
:101DB00002C02E9A01C02E988F9A215030408FEF8A
:101DC0002F3F380761F75F9A08951F93182F579A8E
:101DD000249A259A269A879A2C985F9A2C9A80E0C2
:101DE00061E20E94C40E106880E0612F0E94C40E60
:101DF00080E064E00E94C40E80E063E10E94C40EB3
:101E000080E06CE00E94C40E80E060E20E94C40E9C
:101E100080E06CE00E94C40E80E060E40E94C40E8A
:101E200080E060E80E94C40E1F910895CF93DF9375
:101E3000C0E0D0E081E060E00E94C40E219681E025
:101E4000C83FD807B9F7DF91CF9108951F93182F96
:101E5000606480E00E94C40E106880E0612F0E94E0
:101E6000C40E1F9108955058BB27AA270ED044C115
:101E700035D130F03AD120F031F49F3F11F41EF407
:101E80002AC10EF4E095E7FB20C1E92F46D180F38B
:101E9000BA17620773078407950718F071F49EF567
:101EA0005EC10EF4E0950B2EBA2FA02D0B01B901E7
:101EB00090010C01CA01A0011124FF27591B99F0C0
:101EC000593F50F4503E68F11A16F040A22F232FCC
:101ED000342F4427585FF3CF469537952795A7951C
:101EE000F0405395C9F77EF41F16BA0B620B730BC3
:101EF000840BBAF09150A1F0FF0FBB1F661F771F34
:101F0000881FC2F70EC0BA0F621F731F841F48F4E8
:101F1000879577956795B795F7959E3F08F0B3CF6E
:101F20009395880F08F09927EE0F97958795089558
:101F3000A8D008F481E008950CD0DEC0D6D040F0DF
:101F4000CDD030F021F45F3F19F0BFC0511108C16E
:101F5000C2C0E3D098F39923C9F35523B1F3951B7D
:101F6000550BBB27AA2762177307840738F09F5FBA
:101F70005F4F220F331F441FAA1FA9F333D00E2E29
:101F80003AF0E0E830D091505040E695001CCAF796
:101F900029D0FE2F27D0660F771F881FBB1F26175B
:101FA00037074807AB07B0E809F0BB0B802DBF012E
:101FB000FF2793585F4F2AF09E3F510568F085C078
:101FC000CFC05F3FECF3983EDCF38695779567953D
:101FD000B795F7959F5FC9F7880F911D96958795DF
:101FE00097F90895E1E0660F771F881FBB1F6217FE
:101FF00073078407BA0720F0621B730B840BBA0BBC
:10200000EE1F88F7E0950895E89409C097FB3EF429
:1020100090958095709561957F4F8F4F9F4F992335
:10202000A9F0F92F96E9BB279395F69587957795B3
:102030006795B795F111F8CFFAF4BB0F11F460FF73
:102040001BC06F5F7F4F8F4F9F4F16C0882311F0CB
:1020500096E911C0772321F09EE8872F762F05C0DF
:10206000662371F096E8862F70E060E02AF09A957A
:10207000660F771F881FDAF7880F9695879597F96F
:102080000895990F0008550FAA0BE0E8FEEF161609
:102090001706E807F907C0F012161306E407F5075C
:1020A00098F0621B730B840B950B39F40A2661F0D0
:1020B000232B242B252B21F408950A2609F4A14073
:1020C000A6958FEF811D811D089597F99F6780E880
:1020D00070E060E008959FEF80EC089500240A947A
:1020E0001616170618060906089500240A941216F3
:1020F0001306140605060895092E0394000C11F426
:10210000882352F0BB0F40F4BF2B11F460FF04C0D2
:102110006F5F7F4F8F4F9F4F089557FD9058440F2B
:10212000551F59F05F3F71F04795880F97FB991F36
:1021300061F09F3F79F087950895121613061406F3
:10214000551FF2CF4695F1DF08C016161706180680
:10215000991FF1CF86957105610508940895E8945B
:10216000BB2766277727CB0197F908958ADF08F404
:102170008FEF08950BD0C0CFB1DF28F0B6DF18F095
:10218000952309F0A2CFA7CF1124EACFC6DFA0F391
:10219000959FD1F3950F50E0551F629FF001729FFC
:1021A000BB27F00DB11D639FAA27F00DB11DAA1F1B
:1021B000649F6627B00DA11D661F829F2227B00D68
:1021C000A11D621F739FB00DA11D621F839FA00DF3
:1021D000611D221F749F3327A00D611D231F849F43
:1021E000600D211D822F762F6A2F11249F5750409A
:1021F0008AF0E1F088234AF0EE0FFF1FBB1F661F35
:10220000771F881F91505040A9F79E3F510570F0ED
:102210005CCFA6CF5F3FECF3983EDCF386957795D5
:102220006795B795F795E7959F5FC1F7FE2B880FE8
:10223000911D9695879597F9089597FB092E072686
:102240000AD077FD04D065D006D000201AF470952E
:1022500061957F4F0895F6F7909581959F4F08956A
:10226000A1E21A2EAA1BBB1BFD010DC0AA1FBB1F9A
:10227000EE1FFF1FA217B307E407F50720F0A21B0C
:10228000B30BE40BF50B661F771F881F991F1A9479
:1022900069F760957095809590959B01AC01BD01A3
:1022A000CF0108952F923F924F925F926F927F924B
:1022B0008F929F92AF92BF92CF92DF92EF92FF9256
:1022C0000F931F93CF93DF93CDB7DEB7CA1BDB0B02
:1022D0000FB6F894DEBF0FBECDBF09942A883988A7
:1022E00048885F846E847D848C849B84AA84B984AE
:1022F000C884DF80EE80FD800C811B81AA81B981BA
:10230000CE0FD11D0FB6F894DEBF0FBECDBFED01CD
:102310000895AA1BBB1B51E107C0AA1FBB1FA6172C
:10232000B70710F0A61BB70B881F991F5A95A9F77E
:1023300080959095BC01CD010895283008F027E0E4
:102340003327DA01990F311D87FD916000966105F1
:10235000710539F432602E5F3D9330E32A95E1F741
:1023600008959F3F30F080387105610509F03C5FAA
:102370003C5F3D93913008F08068911DDF93CF93CF
:102380001F930F93FF92EF92192F987F9695E92F45
:1023900096959695E90FFF27E75CFB4F9927332722
:1023A000EE24FF24A701E70105900894079428F480
:1023B000360FE71EF81E491F511D660F771F881F35
:1023C000991F0694A1F70590079428F4E70EF81ECC
:1023D000491F561FC11D770F881F991F661F06943E
:1023E000A1F70590079428F4F80E491F561FC71F40
:1023F000D11D880F991F661F771F0694A1F70590BE
:10240000079420F4490F561FC71FD81F990F661F46
:10241000771F881F0694A9F784911095177041F0D3
:10242000D695C79557954795F794E7941A95C1F7B0
:10243000EFEDF3E0689415901591359165919591C4
:1024400005907FE27395E118F10A430B560BC90B17
:10245000D009C0F7E10CF11E431F561FC91FD01D44
:102460007EF4703311F48A95E6CFE894015030F091
:10247000080F0AF40027021708F4202F2395022FD3
:102480007A3328F079E37D932A95E9F710C07D939C
:102490002A9589F606949795679537951795179419
:1024A000E118F10A430B560BC90BD00998F023959C
:1024B0007E9173957A3308F070E37C932013B8F71C
:1024C0007E9170617D9330F0839571E37D9370E32D
:1024D0002A95E1F71124EF90FF900F911F91CF9172
:1024E000DF91992787FD90950895FC010590615033
:1024F00070400110D8F7809590958E0F9F1F08951A
:10250000FB01DC0101900D920020E1F70895FC0130
:102510006150704001900110D8F7809590958E0F12
:102520009F1F08950F931F93CF93DF938C01EB01AF
:102530008B8181FF1BC082FF0DC02E813F818C816A
:102540009D812817390764F4E881F9810193F983A3
:10255000E88306C0E885F985802F0995892B31F439
:102560008E819F8101969F838E8302C00FEF1FEFA4
:10257000C801DF91CF911F910F910895AEE0B0E0B7
:10258000E4ECF2E10C9460110D891E8986E08C83E5
:102590001A8309838FEF9FE79E838D839E01275EB9
:1025A0003F4FCE0101966F89788DA9010E943009B5
:1025B0002F813885020F131FF80110822E96E4E058
:1025C0000C947C11FA01AA27283051F1203181F1B5
:1025D000E8946F936E7F6E5F7F4F8F4F9F4FAF4F2B
:1025E000B1E03ED0B4E03CD0670F781F891F9A1F3E
:1025F000A11D680F791F8A1F911DA11D6A0F711DF2
:10260000811D911DA11D20D009F468943F912AE0FD
:10261000269F11243019305D3193DEF6CF010895E5
:10262000462F4770405D4193B3E00FD0C9F7F6CF16
:10263000462F4F70405D4A3318F0495D31FD4052DE
:10264000419302D0A9F7EACFB4E0A6959795879574
:1026500077956795BA95C9F7009761057105089553
:102660009B01AC010A2E06945795479537952795FF
:10267000BA95C9F7620F731F841F951FA01D089597
:04268000F894FFCFFC
:10268400456E746572656420627265616B706F6912
:102694006E742040206C696E652030302E2050729C
:1026A400657373206220746F20636F6E74696E7536
:1026B400652E2E2E00456E74657265642062726507
:1026C400616B706F696E742040206C696E652025A3
:1026D4006C642E205072657373206220746F2063C3
:1026E4006F6E74696E75652E2E2E0044424720402D
:1026F40020253030302E3030004442472040202501
:1027040030362E32660054494D455231206F76657D
:1027140072666C6F7765642E005072657373206FF8
:1027240066205357332064657465637465642E00B2
:1027340057616974696E6720666F720064656275BB
:10274400676765722E2E2E00446562756767657231
:1027540020696E697469616C697365642E204465CF
:1027640062756767696E6720737472696E67732038
:1027740077696C6C206170706561722062656C6F42
:10278400773A00456E746572696E67206D61696E93
:10279400206C6F6F702E2E2E0025372E346600436A
:1027A400616C6C696E672073686F775F73637265C1
:1027B400656E28292E2E2E0046696E69736865643D
:1027C4002073686F775F73637265656E28292E00C6
:1027D4004C4544302077617320746F67676C65647F
:1027E4002E004C4544312077617320746F67676C09
:0C27F40065642E000100E10000000008F8
:00000001FF
