:100000000C946D020C948A020C948A020C948A025D
:100010000C948A020C948A020C948A020C948A0230
:100020000C948A020C948A020C94F6050C94310606
:100030000C948A020C948A020C948A020C948A0210
:100040000C948A020C948A020C948A020C948A0200
:100050000C948A020C948A020C948A020C948A02F0
:100060000C948A020C948A020C948A020C94A902C1
:100070000C948A020C948A020C948A020C948A02D0
:100080000C948A020C948A020C948A020C948A02C0
:100090000C948A020C948A020C948A020C948A02B0
:1000A0000C948A020C948A020C948A028B058805AF
:1000B000850582057F057C05790576057305700544
:1000C0006D056A056705640561055E055B055805F4
:1000D000550552054F054C054905460543054005A4
:1000E0003D053A053705340531052E052B05280554
:1000F000250522051F051C05190516051305100504
:100100000D050A05070504050105FE04FB04F804B6
:10011000F504F204EF04EC04E904E604E304E0046B
:10012000DD04DA04D704D404D104CE04CB040001E6
:10013000000062011200020000740143000300008D
:10014000B7010401030904BB011402030904D1012E
:100150001603030904E9010C0001C11201803601F4
:1001600081361201000202000010C0167A0400015C
:100170000102030109024300020100C03209040028
:100180000001020201000524001001052401010103
:10019000042402060524060001070582031000401E
:1001A00009040100020A00000007050302400000E4
:1001B0000705840240000004030904140359006F7A
:1001C000007500720020004E0061006D00650000A7
:1001D00000160355005300420020005300650072D2
:1001E00000690061006C0000000C03310032003334
:1001F000003400350000006E616E00696E6600001C
:100200000000000000005F00000007000700147FEE
:10021000147F14242A7F2A12231308646236495556
:1002200022500005030000001C2241000041221C56
:100230000014083E081408083E080800503000006A
:100240000808080808006060000020100804023E4A
:100250005149453E00427F4000426151494621419B
:10026000454B311814127F1027454545393C4A4902
:10027000493001710905033649494936064949297A
:100280001E003636000000563600000814224100D9
:1002900014141414140041221408020151090632E6
:1002A0004979413E7E1111117E7F494949363E41CF
:1002B0004141227F4141221C7F494949417F09092F
:1002C00009013E4149497A7F0808087F00417F4182
:1002D000002040413F017F081422417F40404040C0
:1002E0007F020C027F7F0408107F3E4141413E7F28
:1002F000090909063E4151215E7F091929464649EF
:1003000049493101017F01013F4040403F1F2040EA
:10031000201F3F4038403F631408146307087008EB
:10032000076151494543007F414100020408102004
:100330000041417F0004020102044040404040006F
:100340000102040020545454787F4844443838440F
:10035000444420384444487F3854545418087E0993
:1003600001020C5252523E7F0804047800447D4042
:10037000002040443D007F1028440000417F4000A1
:100380007C041804787C0804047838444444387C9D
:1003900014141408081414187C7C08040408485425
:1003A000545420043F4440203C4040207C1C2040CA
:1003B000201C3C4030403C44281028440C505050F5
:1003C0003C4464544C44000836410000007F000067
:1003D00000413608001008081008784641467800A9
:1003E000407A10F35A00A0724E18090010A5D4E804
:1003F0000000E87648170000E40B54020000CA9A97
:100400003B000000E1F505000080969800000040E8
:10041000420F000000A0860100000010270000002D
:1004200000E803000000006400000000000A000073
:100430000000000100000000002C76D888DC674F27
:100440000823DFC1DFAE59E1B1B796E5E3E453C657
:100450003AE651997696E8E6C28426EB898C9B624F
:10046000ED407C6FFCEFBC9C9F40F2BAA56FA5F4F9
:1004700090055A2AF75C936B6CF9676DC11BFCE021
:10048000E40D47FEF520E6B500D0ED902E03009474
:100490003577050080841E080000204E0A00000009
:1004A000C80C333333330F986E12831141EF8D2113
:1004B00014893BE65516CFFEE6DB18D1844B381B7A
:1004C000F77C1D901DA4BBE424203284725E22813F
:1004D00000C9F124ECA1E53D270011241FBECFEF98
:1004E000DAE0DEBFCDBF11E0A0E0B1E0EEEBF3E279
:1004F00002C005900D92A433B107D9F713E0A4E32D
:10050000B1E001C01D92A033B107E1F70E943B03A7
:100510000C94DD110C940000982F8091C80085FF89
:10052000FCCF9093CE0008958FB182958695877009
:1005300080FD02C080E0089588EE93E028EC30E072
:10054000F9013197F1F70197D9F77D99FECF81E055
:1005500008951F920F920FB60F9211242F933F937D
:100560004F935F936F937F938F939F93AF93BF93BB
:10057000EF93FF9385B194E0892785B985B198E021
:10058000892785B98091CD00882309F045C08091E5
:10059000CC00833309F040C08091C80081FD3CC08D
:1005A0008091C9008C748834B9F58091CA008E7F1F
:1005B000863091F580E06EE143E52EE10E945E0B0E
:1005C00080E06FE243E52FE20E945E0B80E06EE187
:1005D00040E02FE20E945E0B83E56EE143E52FE2EF
:1005E0000E945E0B80E068E242E128E20E945E0B1E
:1005F00082E16EE142E128E20E945E0B82E060E26D
:1006000040E051E00E94F80C8AE266E244E051E0EA
:100610000E94F80C0E941D0DFF91EF91BF91AF91C8
:100620009F918F917F916F915F914F913F912F910A
:100630000F900FBE0F901F9018958FE30E94510DE1
:1006400080B38F7980BB84B18C6084B9E9ECF0E031
:1006500080818064808383E390E09093CD008093D9
:10066000CC00808188618083EAECF0E08081866044
:10067000808378940895AF92BF92CF92DF92FF92D9
:100680000F931F93DF93CF93CDB7DEB7C055D04004
:100690000FB6F894DEBF0FBECDBF80E88093610037
:1006A00081E0809361000E941D0380E060E04CE0E7
:1006B00051E00E94F80C0E941D0D00E010E06E0158
:1006C0000894C11CD11C29E1A22E21E0B22E0E9467
:1006D00094028823E1F117FD05C0C8010E94DA0FDA
:1006E0000FEF1FEF0E94D50F6AE170E00E94260F06
:1006F00091E4F92EF80E00D000D000D0EDB7FEB78F
:100700003196ADB7BEB71296DC92CE921197B382F6
:10071000A2828F2D992787FD9095958384830E94CF
:10072000FF108DB79EB706960FB6F8949EBF0FBE0A
:100730008DBF80E06FE0A6010E94F80C0E941D0DA5
:100740008091C80085FFFCCFF092CE00C0CF17FD8E
:10075000BECF0F5F1F4FBBCF81E08093D70080EAF1
:100760008093D80082E189BD09B400FEFDCF80E905
:100770008093D8001092E00010923401109235015D
:100780008CE08093E200789408958091340108957C
:100790002FB7F89480913401882369F083E0809327
:1007A000E9009BE68091E80085FD09C082FF03C057
:1007B0009093E800F7CF2FBF2FEF3FEF0CC0909141
:1007C000F1008091E80085FD03C08BE68093E8008E
:1007D0002FBF292F30E0C90108952FB7F8948091D9
:1007E0003401882311F490E010C083E08093E90085
:1007F0009091F200992349F48091E80082FF05C0AE
:1008000085FD03C08BE68093E8002FBF892F0895F4
:1008100080913401882371F09FB7F89483E080932E
:10082000E9002BE602C02093E8008091E80085FDF6
:10083000FACF9FBF0895482F809134018823D9F1C2
:100840002FB7F89484E08093E900809137018823E2
:1008500041F08091E80085FD02C02FBF12C01092C8
:1008600037019091E400975E34E08091E80085FDC7
:1008700013C02FBF8091E400891729F481E0809391
:1008800037018FEF0895809134018823A1F02FB7AD
:10089000F8943093E900E9CF4093F1008091E800AB
:1008A00085FD03C08AE38093E80085E080933601EC
:1008B0002FBF80E008958FEF0895282F8091340195
:1008C000882351F09FB7F89484E08093E9008091E9
:1008D000E80085FD03C09FBF8FEF08952093F100CE
:1008E0008091E80085FD03C08AE38093E80085E0FD
:1008F000809336019FBF80E00895CF93DF93EC0192
:1009000080913401882309F41CC13FB7F89484E036
:100910008093E90080913701882309F408C1809110
:10092000E80085FD02C03FBF0CC110923701FFC037
:100930009091E400975E8091E80085FD13C03FBF71
:100940008091E400891721F481E080933701F9C098
:1009500080913401882309F4F4C03FB7F894B09330
:10096000E900E9CF8091F200242F281B822F90E02C
:100970006817790708F4262F822F90E081349105BB
:1009800008F0C6C08A5A9F4FFC01EE0FFF1F05906A
:10099000F491E02D099489918093F10089918093DD
:1009A000F10089918093F10089918093F100899100
:1009B0008093F10089918093F10089918093F100F7
:1009C00089918093F10089918093F10089918093BE
:1009D000F10089918093F10089918093F1008991D0
:1009E0008093F10089918093F10089918093F100C7
:1009F00089918093F10089918093F100899180938E
:100A0000F10089918093F10089918093F10089919F
:100A10008093F10089918093F10089918093F10096
:100A200089918093F10089918093F100899180935D
:100A3000F10089918093F10089918093F10089916F
:100A40008093F10089918093F10089918093F10066
:100A500089918093F10089918093F100899180932D
:100A6000F10089918093F10089918093F10089913F
:100A70008093F10089918093F10089918093F10036
:100A800089918093F10089918093F10089918093FD
:100A9000F10089918093F10089918093F10089910F
:100AA0008093F10089918093F10089918093F10006
:100AB00089918093F10089918093F10089918093CD
:100AC000F10089918093F10089918093F1008991DF
:100AD0008093F10089918093F10089918093F100D6
:100AE00089918093F10089918093F100899180939D
:100AF000F10089918093F10089918093F1008991AF
:100B00008093F10089918093F10089918093F100A5
:100B100089918093F1008091E80085FD02C0509397
:100B2000E800621B7109A09336013FBF04C0B4E026
:100B300040E45AE3A5E06115710509F0F9CE80E0C3
:100B400001C08FEFDF91CF9108959FB7F894809106
:100B50003601882341F084E08093E9008AE38093A2
:100B6000E800109236019FBF0895609129017091AD
:100B70002A0180912B0190912C01089580912D01E3
:100B8000089580912E01089580912F0108958091FC
:100B900035010895282F9FB7F89480913401882358
:100BA00039F082E08093E9008091E80085FD03C080
:100BB0009FBF8FEF089581EA8093F10080E28093D8
:100BC000F1001092F1001092F1001092F1001092D9
:100BD000F10081E08093F1001092F1002093F10088
:100BE0008AE38093E8009FBF80E008951F920F92F0
:100BF0000FB60F9211248F939F938091E100109272
:100C0000E100982F83FF11C01092E90081E08093EA
:100C1000EB001092EC0082E18093ED0088E080937D
:100C2000F000109234011092350192FF13C08091B0
:100C30003401882379F080913601882359F081505E
:100C400080933601882331F484E08093E9008AE3BD
:100C50008093E8009F918F910F900FBE0F901F908F
:100C600018951F920F920FB60F9211240F931F9396
:100C70002F933F934F935F936F937F938F939F93A4
:100C8000AF93BF93EF93FF931092E9008091E80038
:100C900083FF3CC14091F1003091F1008091F1005F
:100CA000682F70E02091F100922F80E0682B792B63
:100CB0008091F100A82FB0E02091F100922F80E008
:100CC000A82BB92B1091F1000091F10082EF8093D5
:100CD000E800363009F05AC025E331E0A90145505B
:100CE0005040F9013797859194918617970701F540
:100CF000FA01859194918A179B07D1F49A012E5F8E
:100D00003F4FF901659174912E5F3F4FF901449176
:100D1000212F30E0902F80E0282B392B2F3F3105F9
:100D200019F010F02FEF30E0241758F4422F09C0CB
:100D3000295F3F4F495F5F4FF1E02F353F0789F64D
:100D4000E5C05EEF8091E800282F30E0C901857092
:100D50009070892BB9F322FDDCC0342F413108F0AB
:100D600030E1232FCB0106C0FC010196E491E09312
:100D7000F10021502223C1F7630F711D431B5093D3
:100D8000E8004423F9F63031E9F2C3C0353061F4AC
:100D90008EEF8093E8008091E80080FFFCCF862FE3
:100DA00080688093E300B5C0393051F5442309F0E1
:100DB000ADC06093340110923501109236018EEF70
:100DC0008093E80088E591E021E02093E900FC01B0
:100DD0000196E491E093EB00EE2369F0AC014F5FE4
:100DE0005F4FFC0184918093EC00CA010196FA01E7
:100DF00034913093ED002F5F253039F78EE181C0BB
:100E0000383061F4403809F081C08091E80080FFFB
:100E1000FCCF809134018093F10050C0313289F4CD
:100E2000413A09F073C08091E80080FFFCCFE9E20D
:100E3000F1E081918093F10081E0E033F807C9F798
:100E40003DC03032A1F4413209F060C08091E80029
:100E500082FFFCCFE9E2F1E08091F100819381E033
:100E6000E033F807C9F78BEF8093E80027C03232F0
:100E700051F4413209F04AC0609335018091E80095
:100E800080FFFCCF1BC03323E9F48091E80080FF92
:100E9000FCCF423811F080E00DC0A093E9008091B2
:100EA000EB0090E025E0969587952A95E1F7817013
:100EB0001092E9008093F1001092F1008EEF809380
:100EC000E80027C0313011F0333001F54230F1F441
:100ED000672BE1F42A2F2F77822F81508430B0F4D2
:100EE0008EEF8093E8002093E900333079F089E1B8
:100EF0008093EB0081E090E002C0880F991F2A9553
:100F0000E2F78093EA001092EA0003C081E2809346
:100F1000EB00FF91EF91BF91AF919F918F917F91E6
:100F20006F915F914F913F912F911F910F910F9072
:100F30000FBE0F901F901895A1E1B0E0E2EAF7E034
:100F40000C94390F3C017F876E876A01FC01178280
:100F50001682838181FD03C06FEF7FEF6FC39E0117
:100F60002F5F3F4F398B288BF3012381EE85FF855F
:100F700023FD859123FF8191FF87EE87882309F464
:100F80005AC3853251F4EE85FF8523FD859123FFF9
:100F90008191FF87EE87853229F490E0B3010E94AA
:100FA000D310E2CF982F10E0882499241032B0F4A7
:100FB0009B3269F09C3228F4903251F0933271F4F4
:100FC0000BC09D3239F0903349F4116028C0126093
:100FD000146025C0186023C0106121C017FD2AC00D
:100FE000892F80538A3078F416FF06C0FAE09F9E5E
:100FF000902C1124980E13C03AE0839E802C11246B
:10100000880E10620CC09E3221F416FD14C31064C9
:1010100006C09C3611F4106802C0983659F4EE856B
:10102000FF8523FD959123FF9191FF87EE879923FB
:1010300009F0BCCF892F8554833020F4812F806143
:10104000905E07C0892F8556833008F09FC1812F9D
:101050008F7E86FD02C076E0972E6FE3F62EF82293
:10106000953619F4F0E4FF2A07C0963619F420E803
:10107000F22A02C091109A94F7FE0AC03BE3391598
:1010800018F45CE3B52E02C0B92CB39427E009C074
:1010900047E0491520F4BB2447E0942EF7CF292DD3
:1010A000BB24C60104969D878C87F60160817181FF
:1010B00082819381AE014F5F5F4F0B2D0E94E50F40
:1010C0006C010981202E332400FF04C003FD02C0FF
:1010D0001DE209C0F1FE02C01BE205C0F2FC02C025
:1010E00010E001C010E2C1018C709070892BB9F141
:1010F000112311F483E001C084E0881510F08824E6
:101100000AC0881AF3FC07C080E290E0B3010E9495
:10111000D3108A94C9F7112329F0812F90E0B301ED
:101120000E94D31023FE03C007EF11E00EC00BEFA7
:1011300011E00BC0E114F10409F0805290E0B3011A
:101140000E94D3100F5F1F4F05C0EF2CFF24F0E16A
:10115000EF22FF24F8018491882361F714C1F7FE80
:1011600012C0BC0C24FE04C08A81813309F4BA94F5
:101170001B141CF0BB24B3942DC0F8E0FB1550F5F4
:1011800038E0B32E27C0F6FC25C0892D90E08C15E1
:101190009D054CF02CEFC2162FEFD20624F030E85C
:1011A000F32A01C09A94992049F0E2E0F0E0EC0FB4
:1011B000FD1FE90DF11D80818033A1F3F7FE0AC008
:1011C000B92CB394892D90E0C816D90614F099244F
:1011D00001C09C18F7FC03C025E030E009C01C14D6
:1011E0001D041CF021E030E003C096012F5F3F4F4B
:1011F000112311F02F5F3F4F992029F0892D90E0A6
:101200000196280F391F882D90E02817390714F010
:10121000882401C0821A4F2C5524C2018970907015
:10122000892B39F008C080E290E0B3010E94D3100E
:101230008A948820C1F7112329F0812F90E0B3010F
:101240000E94D31043FE07C008C080E390E0B301C2
:101250000E94D3108A948820C1F7F7FE46C0860109
:10126000D7FE02C000E010E076010894E11CF11CFA
:10127000E01AF10A41E050E04C0F5D1FE40EF51E4C
:1012800026014B185108892D90E0AA24BB24A81AE6
:10129000B90A5FEF0F3F150729F48EE290E0B30122
:1012A0000E94D310C016D10634F0401651061CF42B
:1012B000F701808101C080E3015010400894E11CD7
:1012C000F11C0A151B052CF090E0B3010E94D3100D
:1012D000E0CF0C151D0539F49A81963318F4953337
:1012E00011F424FE81E390E04BC08A81813309F040
:1012F0000F7E90E0B3010E94D3109920A1F08EE2FE
:1013000090E0B3010E94D31012E0E1E0F0E0EC0FB6
:10131000FD1FE10FF11D1F5F808190E0B3010E946E
:10132000D3109A9491F744FC03C085E690E002C084
:1013300085E490E0B3010E94D310D7FC05C0C1142E
:10134000D10441F404FF06C0D094C194D108D394D1
:101350008DE201C08BE290E0B3010E94D31080E3E4
:1013600005C08F5F26EF3FEFC20ED31E3AE0C316D3
:10137000D104BCF790E0B3010E94D310C601C0961F
:10138000B3010E94D310CC84DD8452C1933631F076
:10139000933799F0933509F059C023C0F601808145
:1013A00089835E010894A11CB11C22E030E0C20ECA
:1013B000D31E21E0E22EF12C12C0F601A080B180F4
:1013C00016FD03C06FEF7FEF02C0692D70E022E0D1
:1013D00030E0C20ED31EC5010E94C8107C011F77E9
:1013E00013C0F601A080B18016FD03C06FEF7FEF40
:1013F00002C0692D70E022E030E0C20ED31EC501AC
:101400000E94BD107C01106813FF07C01BC080E262
:1014100090E0B3010E94D3108A94882D90E0E816E2
:10142000F906A8F30FC0F50117FD859117FF81910B
:101430005F0190E0B3010E94D31081108A94089458
:10144000E108F108E114F10471F7F2C0943611F0EB
:10145000993689F517FF08C0F60120813181428154
:10146000538184E090E00AC0F601808191819C0163
:10147000442737FD4095542F82E090E0C80ED91ED6
:101480009FE6F92EF12257FF09C0509540953095FF
:1014900021953F4F4F4F5F4F90E8F92ACA01B9019C
:1014A000AE014F5F5F4F2AE030E00E942311E82E2B
:1014B000E889EE1A41C0953721F41F7E2AE030E01A
:1014C0001CC0197F9F3661F0903720F4983509F0E1
:1014D000B2C00FC0903739F0983709F0ACC004C0E3
:1014E00028E030E00AC0106114FD146020E130E013
:1014F00004C014FD166020E132E017FF08C0F601B9
:10150000608171818281938144E050E008C0F601DE
:1015100080819181BC0180E090E042E050E0C40E07
:10152000D51EAE014F5F5F4F0E942311E82E5889F0
:10153000E51A8FE7F82EF122F6FE0BC08EEFF822A7
:10154000E91438F4F4FE07C0F2FC05C09FEEF9225E
:1015500002C01E2D01C0192DF4FE0DC0FE01EE0DBE
:10156000F11D8081803319F4E9EEFE2208C01F5F6F
:10157000F2FE05C003C08F2D867809F01F5F0F2D86
:10158000F3FC14C0F0FE0FC0181510F09E2C0BC019
:101590009E2C980C911A182D06C080E290E0B301A1
:1015A0000E94D3101F5F1815C0F304C0181510F463
:1015B000811A01C0882404FF0FC080E390E0B301CA
:1015C0000E94D31002FF1DC001FD03C088E790E018
:1015D0000EC088E590E00BC0802F867891F001FF67
:1015E00002C08BE201C080E2F7FC8DE290E0B30123
:1015F0000E94D31006C080E390E0B3010E94D31094
:101600009A94E914C0F3EA94E1E0F0E0EC0FFD1FD6
:10161000EE0DF11D808190E0B3010E94D310EE2009
:1016200091F706C080E290E0B3010E94D3108A9443
:101630008820C1F799CCF30166817781CB0161964F
:10164000E2E10C94550FE8E3F1E0119283E0E0331E
:10165000F807D9F70895843580F5603370F5262FA3
:10166000269526952695677090E0442399F0E4E549
:101670002E9FF0011124E80FF91FE85CFE4F81E076
:1016800090E002C0880F991F6A95E2F72081282B0D
:1016900020830895E4E52E9FF0011124E80FF91F3F
:1016A000E85CFE4F81E090E002C0880F991F6A95C8
:1016B000E2F7809520812823208308952F923F927E
:1016C0004F925F926F927F928F929F92AF92BF9252
:1016D000CF92DF92EF92FF920F931F93DF93CF93FE
:1016E000CDB7DEB72D970FB6F894DEBF0FBECDBFD6
:1016F000D82EC62E142F022F8417F9F4A62EBB2441
:10170000E22EFF240EC08D2D6A2D41E00E942B0B8E
:10171000C01620F40894A11CB11C03C00894A108B1
:10172000B108C01628F4EA14FB040CF4FEC0EBCF99
:10173000AE14BF040CF4F9C0E6CF282F30E06017D8
:10174000F9F4C9015C01E42EFF240EC08A2D6C2D32
:1017500041E00E942B0BD11620F40894A11CB11C6F
:1017600003C00894A108B108D11628F4EA14FB04B8
:101770000CF4DBC0EBCFAE14BF040CF4D6C0E6CF44
:10178000842F90E09A838983C9015C0169817A8101
:10179000681B790B882777FD8095982F0E94720E21
:1017A0006F83788789879A87202E33244C2C552481
:1017B000B10164197509882777FD8095982F0E94DB
:1017C000720E3B014C012F81388549855A850E9454
:1017D000080E6B837C838D839E8320E030E040E0A5
:1017E00050E00E94220F87FF0DC0C401B301905842
:1017F0002F81388549855A850E94080E6B837C832A
:101800008D839E830F2EF0E0CF2EF0E0DF2EF0E0F0
:10181000EF2EF0E0FF2EF02D70C0AB868A2D642DE8
:1018200041E00E942B0BC701B6012B813C814D8109
:101830005E810E94A00D31C08B85642D41E00E9425
:101840002B0B1D861C86C401B30120E030E040E074
:1018500050E00E94220F181624F4E1E0F0E0FD872A
:10186000EC8700E010E0C401B30120E030E040E08C
:1018700050E00E94040E882314F401E010E08C85EF
:101880009D85801B910B480E591EC701B60120E0B3
:1018900030E040E85FE30E949F0D6B017C0120E097
:1018A00030E040E05FE30E94220F88239CF0C401F7
:1018B000B30120E030E040E050E00E94220F181613
:1018C0002CF4241435040CF0B7CF04C04214530494
:1018D0000CF0B2CF6F81788589859A8520E030E061
:1018E00040E050E00E94220F181624F40894A11C36
:1018F000B11C03C00894A108B1086F81788589855F
:101900009A8520E030E040E050E00E94220F181657
:1019100034F4E981FA81EA15FB053CF07ECF898138
:101920009A81A816B9060CF078CF2D960FB6F894C8
:10193000DEBF0FBECDBFCF91DF911F910F91FF9002
:10194000EF90DF90CF90BF90AF909F908F907F905F
:101950006F905F904F903F902F9008959F92AF921D
:10196000BF92CF92DF92EF92FF920F931F93CF938C
:10197000DF93982EC62E85E0489FE0011124C05ABF
:10198000D04000E081E0A82EB12C18C0612F6C0D72
:10199000A501012E02C0440F551F0A94E2F74E2103
:1019A0005F21012E02C0559547950A94E2F78D2DCF
:1019B0000E942B0B1F5F183049F70F5F053061F055
:1019C000FE01E00FF11DE150FE4F10E0E491D02E3A
:1019D000D90CEE2EFF24EFCFDF91CF911F910F9105
:1019E000FF90EF90DF90CF90BF90AF909F900895C1
:1019F000EF92FF920F931F93CF93DF93F82E062F52
:101A0000142F242F352FC901EC0195E0E92E08C0D1
:101A10008E9DC00111248F0D602F0E94AE0C219667
:101A20009E01211B822F4881442391F7DF91CF91A2
:101A30001F910F91FF90EF900895CF93DF9380E077
:101A400060E00E94920DC8E3D1E081E069910E94BC
:101A5000300D83E0C033D807C1F7DF91CF910895EF
:101A600095B18295880F807E9F7D982B95B95F9860
:101A700027E030E070E08F98CB01022E02C09595F0
:101A800087950A94E2F780FF02C02E9A01C02E9833
:101A90008F9A215030408FEF2F3F380761F75F9AC0
:101AA00008951F93182F579A249A259A269A879A51
:101AB0002C985F9A2C9A80E061E20E94300D1068A9
:101AC00080E0612F0E94300D80E064E00E94300DC4
:101AD00080E063E10E94300D80E06CE00E94300DF8
:101AE00080E060E20E94300D80E06CE00E94300DEA
:101AF00080E060E40E94300D80E060E80E94300DDC
:101B00001F910895CF93DF93C0E0D0E081E060E0C3
:101B10000E94300D219681E0C83FD807B9F7DF91C8
:101B2000CF9108951F93182F606480E00E94300DBC
:101B3000106880E0612F0E94300D1F910895505869
:101B4000BB27AA270ED044C135D130F03AD120F0BE
:101B500031F49F3F11F41EF42AC10EF4E095E7FB27
:101B600020C1E92F46D180F3BA17620773078407B3
:101B7000950718F071F49EF55EC10EF4E0950B2EFA
:101B8000BA2FA02D0B01B90190010C01CA01A001CF
:101B90001124FF27591B99F0593F50F4503E68F12A
:101BA0001A16F040A22F232F342F4427585FF3CF6B
:101BB000469537952795A795F0405395C9F77EF43C
:101BC0001F16BA0B620B730B840BBAF09150A1F085
:101BD000FF0FBB1F661F771F881FC2F70EC0BA0F0B
:101BE000621F731F841F48F4879577956795B79593
:101BF000F7959E3F08F0B3CF9395880F08F099278B
:101C0000EE0F979587950895A8D008F481E0089580
:101C10000CD0DEC0D6D040F0CDD030F021F45F3F04
:101C200019F0BFC0511108C1C2C0E3D098F3992385
:101C3000C9F35523B1F3951B550BBB27AA27621790
:101C40007307840738F09F5F5F4F220F331F441FD5
:101C5000AA1FA9F333D00E2E3AF0E0E830D091500D
:101C60005040E695001CCAF729D0FE2F27D0660FFA
:101C7000771F881FBB1F261737074807AB07B0E839
:101C800009F0BB0B802DBF01FF2793585F4F2AF04F
:101C90009E3F510568F085C0CFC05F3FECF3983E92
:101CA000DCF3869577956795B795F7959F5FC9F7AC
:101CB000880F911D9695879597F90895E1E0660F35
:101CC000771F881FBB1F621773078407BA0720F0AE
:101CD000621B730B840BBA0BEE1F88F7E095089517
:101CE000E89409C097FB3EF49095809570956195B6
:101CF0007F4F8F4F9F4F9923A9F0F92F96E9BB276C
:101D00009395F695879577956795B795F111F8CFE7
:101D1000FAF4BB0F11F460FF1BC06F5F7F4F8F4F52
:101D20009F4F16C0882311F096E911C0772321F048
:101D30009EE8872F762F05C0662371F096E8862FE0
:101D400070E060E02AF09A95660F771F881FDAF737
:101D5000880F9695879597F90895990F0008550F64
:101D6000AA0BE0E8FEEF16161706E807F907C0F021
:101D700012161306E407F50798F0621B730B840B29
:101D8000950B39F40A2661F0232B242B252B21F403
:101D900008950A2609F4A140A6958FEF811D811DA3
:101DA000089597F99F6780E870E060E008959FEFDD
:101DB00080EC089500240A941616170618060906E2
:101DC000089500240A9412161306140605060895B1
:101DD000092E0394000C11F4882352F0BB0F40F439
:101DE000BF2B11F460FF04C06F5F7F4F8F4F9F4F79
:101DF000089557FD9058440F551F59F05F3F71F0FB
:101E00004795880F97FB991F61F09F3F79F0879561
:101E10000895121613061406551FF2CF4695F1DFEA
:101E200008C0161617061806991FF1CF869571057A
:101E3000610508940895E894BB2766277727CB01AE
:101E400097F908958ADF08F48FEF089597FB092E1C
:101E500007260AD077FD04D043D006D000201AF41C
:101E6000709561957F4F0895F6F7909581959F4FF6
:101E700008952F923F924F925F926F927F928F922E
:101E80009F92AF92BF92CF92DF92EF92FF920F9309
:101E90001F93CF93DF93CDB7DEB7CA1BDB0B0FB613
:101EA000F894DEBF0FBECDBF09942A8839884888D0
:101EB0005F846E847D848C849B84AA84B984C88466
:101EC000DF80EE80FD800C811B81AA81B981CE0F5D
:101ED000D11D0FB6F894DEBF0FBECDBFED01089542
:101EE000AA1BBB1B51E107C0AA1FBB1FA617B70740
:101EF00010F0A61BB70B881F991F5A95A9F780955C
:101F00009095BC01CD010895A0E0B0E0EAE8FFE0C3
:101F10000C94410FEC01A880B980CA80DB80A11429
:101F2000B104C104D10441F484E2A82E89EDB82E95
:101F30008BE5C82E87E0D82EC601B5012DE133EF21
:101F400041E050E00E94A01127EA31E440E050E077
:101F50000E9481117B018C01C601B5012DE133EF97
:101F600041E050E00E94A011CA01B9012CEE34EF0B
:101F70004FEF5FEF0E9481116E0D7F1D801F911F3B
:101F800097FF04C061507040804090486883798317
:101F90008A839B839B013F77C901CDB7DEB7EAE017
:101FA0000C945D0F0E94840F089580E391E00E94DD
:101FB000840F0895A0E0B0E0809330019093310148
:101FC000A0933201B09333010895283008F027E040
:101FD0003327DA01990F311D87FD91600096610565
:101FE000710539F432602E5F3D9330E32A95E1F7B5
:101FF00008959F3F30F080387105610509F03C5F1E
:102000003C5F3D93913008F08068911DDF93CF9342
:102010001F930F93FF92EF92192F987F9695E92FB8
:1020200096959695E90FFF27E75CFB4F9927332795
:10203000EE24FF24A701E70105900894079428F4F3
:10204000360FE71EF81E491F511D660F771F881FA8
:10205000991F0694A1F70590079428F4E70EF81E3F
:10206000491F561FC11D770F881F991F661F0694B1
:10207000A1F70590079428F4F80E491F561FC71FB3
:10208000D11D880F991F661F771F0694A1F7059031
:10209000079420F4490F561FC71FD81F990F661FBA
:1020A000771F881F0694A9F784911095177041F047
:1020B000D695C79557954795F794E7941A95C1F724
:1020C000EFEDF3E068941590159135916591959138
:1020D00005907FE27395E118F10A430B560BC90B8B
:1020E000D009C0F7E10CF11E431F561FC91FD01DB8
:1020F0007EF4703311F48A95E6CFE894015030F005
:10210000080F0AF40027021708F4202F2395022F46
:102110007A3328F079E37D932A95E9F710C07D930F
:102120002A9589F60694979567953795179517948C
:10213000E118F10A430B560BC90BD00998F023950F
:102140007E9173957A3308F070E37C932013B8F78F
:102150007E9170617D9330F0839571E37D9370E3A0
:102160002A95E1F71124EF90FF900F911F91CF91E5
:10217000DF91992787FD90950895FC0105906150A6
:1021800070400110D8F7809590958E0F9F1F08958D
:10219000FC016150704001900110D8F78095909536
:1021A0008E0F9F1F08950F931F93CF93DF938C0182
:1021B000EB018B8181FF1BC082FF0DC02E813F810F
:1021C0008C819D812817390764F4E881F981019396
:1021D000F983E88306C0E885F985802F0995892B66
:1021E00031F48E819F8101969F838E8302C00FEF11
:1021F0001FEFC801DF91CF911F910F910895AEE0BD
:10220000B0E0E5E0F1E10C94470F0D891E8986E00E
:102210008C831A8309838FEF9FE79E838D839E01B2
:10222000275E3F4FCE0101966F89788DA9010E94EC
:102230009C072F813885020F131FF80110822E96FC
:10224000E4E00C94630FFA01AA27283051F1203101
:1022500081F1E8946F936E7F6E5F7F4F8F4F9F4F3A
:10226000AF4FB1E03ED0B4E03CD0670F781F891F7C
:102270009A1FA11D680F791F8A1F911DA11D6A0F4A
:10228000711D811D911DA11D20D009F468943F91FD
:102290002AE0269F11243019305D3193DEF6CF01FC
:1022A0000895462F4770405D4193B3E00FD0C9F7C2
:1022B000F6CF462F4F70405D4A3318F0495D31FD2F
:1022C0004052419302D0A9F7EACFB4E0A695979582
:1022D000879577956795BA95C9F700976105710558
:1022E00008959B01AC010A2E0694579547953795A2
:1022F0002795BA95C9F7620F731F841F951FA01DFC
:102300000895629FD001739FF001829FE00DF11D3F
:10231000649FE00DF11D929FF00D839FF00D749F5F
:10232000F00D659FF00D9927729FB00DE11DF91F0B
:10233000639FB00DE11DF91FBD01CF011124089568
:1023400097FB092E05260ED057FD04D014D00AD0D5
:10235000001C38F450954095309521953F4F4F4FD4
:102360005F4F0895F6F790958095709561957F4F32
:102370008F4F9F4F0895A1E21A2EAA1BBB1BFD0190
:102380000DC0AA1FBB1FEE1FFF1FA217B307E40754
:10239000F50720F0A21BB30BE40BF50B661F771FAC
:1023A000881F991F1A9469F760957095809590958C
:0E23B0009B01AC01BD01CF010895F894FFCF51
:1023BE0044424700532045204E2054005452414E73
:1023CE00534D49545445523A0053656E64696E67D5
:1023DE0020272563272E2E2E0000E1000000000886
:0423EE0001000000EA
:00000001FF
